{
    "_format": "hh-sol-artifact-1",
    "contractName": "CaseManager",
    "sourceName": "contracts/CaseManager.sol",
    "abi": [
        {
            "anonymous": false,
            "inputs": [
                {
                    "indexed": false,
                    "internalType": "uint256",
                    "name": "caseId",
                    "type": "uint256"
                },
                {
                    "indexed": false,
                    "internalType": "address",
                    "name": "client",
                    "type": "address"
                },
                {
                    "indexed": false,
                    "internalType": "address",
                    "name": "lawyer",
                    "type": "address"
                },
                {
                    "indexed": false,
                    "internalType": "address",
                    "name": "judge",
                    "type": "address"
                }
            ],
            "name": "CaseRegistered",
            "type": "event"
        },
        {
            "anonymous": false,
            "inputs": [
                {
                    "indexed": false,
                    "internalType": "uint256",
                    "name": "caseId",
                    "type": "uint256"
                },
                {
                    "indexed": false,
                    "internalType": "enum CaseManager.CaseStatus",
                    "name": "status",
                    "type": "uint8"
                }
            ],
            "name": "CaseStatusUpdated",
            "type": "event"
        },
        {
            "inputs": [],
            "name": "caseCounter",
            "outputs": [
                {
                    "internalType": "uint256",
                    "name": "",
                    "type": "uint256"
                }
            ],
            "stateMutability": "view",
            "type": "function"
        },
        {
            "inputs": [
                {
                    "internalType": "uint256",
                    "name": "",
                    "type": "uint256"
                }
            ],
            "name": "cases",
            "outputs": [
                {
                    "internalType": "uint256",
                    "name": "caseId",
                    "type": "uint256"
                },
                {
                    "internalType": "address",
                    "name": "client",
                    "type": "address"
                },
                {
                    "internalType": "address",
                    "name": "lawyer",
                    "type": "address"
                },
                {
                    "internalType": "address",
                    "name": "judge",
                    "type": "address"
                },
                {
                    "internalType": "string",
                    "name": "description",
                    "type": "string"
                },
                {
                    "internalType": "enum CaseManager.CaseStatus",
                    "name": "status",
                    "type": "uint8"
                }
            ],
            "stateMutability": "view",
            "type": "function"
        },
        {
            "inputs": [
                {
                    "internalType": "uint256",
                    "name": "_caseId",
                    "type": "uint256"
                }
            ],
            "name": "getCase",
            "outputs": [
                {
                    "components": [
                        {
                            "internalType": "uint256",
                            "name": "caseId",
                            "type": "uint256"
                        },
                        {
                            "internalType": "address",
                            "name": "client",
                            "type": "address"
                        },
                        {
                            "internalType": "address",
                            "name": "lawyer",
                            "type": "address"
                        },
                        {
                            "internalType": "address",
                            "name": "judge",
                            "type": "address"
                        },
                        {
                            "internalType": "string",
                            "name": "description",
                            "type": "string"
                        },
                        {
                            "internalType": "enum CaseManager.CaseStatus",
                            "name": "status",
                            "type": "uint8"
                        }
                    ],
                    "internalType": "struct CaseManager.LegalCase",
                    "name": "",
                    "type": "tuple"
                }
            ],
            "stateMutability": "view",
            "type": "function"
        },
        {
            "inputs": [
                {
                    "internalType": "uint256",
                    "name": "",
                    "type": "uint256"
                }
            ],
            "name": "judges",
            "outputs": [
                {
                    "internalType": "address",
                    "name": "",
                    "type": "address"
                }
            ],
            "stateMutability": "view",
            "type": "function"
        },
        {
            "inputs": [
                {
                    "internalType": "address",
                    "name": "_client",
                    "type": "address"
                },
                {
                    "internalType": "address",
                    "name": "_lawyer",
                    "type": "address"
                },
                {
                    "internalType": "string",
                    "name": "_description",
                    "type": "string"
                }
            ],
            "name": "registerCase",
            "outputs": [
                {
                    "internalType": "uint256",
                    "name": "",
                    "type": "uint256"
                }
            ],
            "stateMutability": "nonpayable",
            "type": "function"
        },
        {
            "inputs": [
                {
                    "internalType": "address",
                    "name": "_judge",
                    "type": "address"
                }
            ],
            "name": "registerJudge",
            "outputs": [],
            "stateMutability": "nonpayable",
            "type": "function"
        },
        {
            "inputs": [
                {
                    "internalType": "uint256",
                    "name": "_caseId",
                    "type": "uint256"
                },
                {
                    "internalType": "enum CaseManager.CaseStatus",
                    "name": "_status",
                    "type": "uint8"
                }
            ],
            "name": "updateCaseStatus",
            "outputs": [],
            "stateMutability": "nonpayable",
            "type": "function"
        }
    ],
    "bytecode": "0x608060405234801561001057600080fd5b50611586806100206000396000f3fe608060405234801561001057600080fd5b506004361061007d5760003560e01c80638ca767ae1161005b5780638ca767ae146100ec578063a91a108014610108578063b06b036814610138578063f09790dd146101685761007d565b806327290bd81461008257806343ab8dd31461009e5780637b09bd6b146100bc575b600080fd5b61009c60048036038101906100979190610aa8565b61019d565b005b6100a6610203565b6040516100b39190610aee565b60405180910390f35b6100d660048036038101906100d19190610c4f565b610209565b6040516100e39190610aee565b60405180910390f35b61010660048036038101906101019190610d0f565b6104c9565b005b610122600480360381019061011d9190610d4f565b610636565b60405161012f9190610f19565b60405180910390f35b610152600480360381019061014d9190610d4f565b61083c565b60405161015f9190610f4a565b60405180910390f35b610182600480360381019061017d9190610d4f565b61087b565b60405161019496959493929190610fbe565b60405180910390f35b6002819080600181540180825580915050600190039060005260206000200160009091909190916101000a81548173ffffffffffffffffffffffffffffffffffffffff021916908373ffffffffffffffffffffffffffffffffffffffff16021790555050565b60005481565b60008060028054905011610252576040517f08c379a000000000000000000000000000000000000000000000000000000000815260040161024990611072565b60405180910390fd5b60006002808054905060005461026891906110c1565b81548110610279576102786110f2565b5b9060005260206000200160009054906101000a900473ffffffffffffffffffffffffffffffffffffffff1690506000808154809291906102b890611150565b91905055506040518060c0016040528060005481526020018673ffffffffffffffffffffffffffffffffffffffff1681526020018573ffffffffffffffffffffffffffffffffffffffff1681526020018273ffffffffffffffffffffffffffffffffffffffff1681526020018481526020016000600281111561033e5761033d610e19565b5b81525060016000805481526020019081526020016000206000820151816000015560208201518160010160006101000a81548173ffffffffffffffffffffffffffffffffffffffff021916908373ffffffffffffffffffffffffffffffffffffffff16021790555060408201518160020160006101000a81548173ffffffffffffffffffffffffffffffffffffffff021916908373ffffffffffffffffffffffffffffffffffffffff16021790555060608201518160030160006101000a81548173ffffffffffffffffffffffffffffffffffffffff021916908373ffffffffffffffffffffffffffffffffffffffff160217905550608082015181600401908161044991906113a4565b5060a08201518160050160006101000a81548160ff0219169083600281111561047557610474610e19565b5b02179055509050507fb6cf3a3bbbbc7f78f8e81802ac2c04bce34fcac86e2681913a837f9d4ae71fa26000548686846040516104b49493929190611476565b60405180910390a16000549150509392505050565b60006001600084815260200190815260200160002090508060030160009054906101000a900473ffffffffffffffffffffffffffffffffffffffff1673ffffffffffffffffffffffffffffffffffffffff163373ffffffffffffffffffffffffffffffffffffffff16148061058d57508060020160009054906101000a900473ffffffffffffffffffffffffffffffffffffffff1673ffffffffffffffffffffffffffffffffffffffff163373ffffffffffffffffffffffffffffffffffffffff16145b6105cc576040517f08c379a00000000000000000000000000000000000000000000000000000000081526004016105c390611507565b60405180910390fd5b818160050160006101000a81548160ff021916908360028111156105f3576105f2610e19565b5b02179055507f63ddd364849237939ab7ab73ff6b6d90913684f5afc06bb1de7afb96360177b78383604051610629929190611527565b60405180910390a1505050565b61063e6109ac565b600160008381526020019081526020016000206040518060c0016040529081600082015481526020016001820160009054906101000a900473ffffffffffffffffffffffffffffffffffffffff1673ffffffffffffffffffffffffffffffffffffffff1673ffffffffffffffffffffffffffffffffffffffff1681526020016002820160009054906101000a900473ffffffffffffffffffffffffffffffffffffffff1673ffffffffffffffffffffffffffffffffffffffff1673ffffffffffffffffffffffffffffffffffffffff1681526020016003820160009054906101000a900473ffffffffffffffffffffffffffffffffffffffff1673ffffffffffffffffffffffffffffffffffffffff1673ffffffffffffffffffffffffffffffffffffffff168152602001600482018054610778906111c7565b80601f01602080910402602001604051908101604052809291908181526020018280546107a4906111c7565b80156107f15780601f106107c6576101008083540402835291602001916107f1565b820191906000526020600020905b8154815290600101906020018083116107d457829003601f168201915b505050505081526020016005820160009054906101000a900460ff16600281111561081f5761081e610e19565b5b600281111561083157610830610e19565b5b815250509050919050565b6002818154811061084c57600080fd5b906000526020600020016000915054906101000a900473ffffffffffffffffffffffffffffffffffffffff1681565b60016020528060005260406000206000915090508060000154908060010160009054906101000a900473ffffffffffffffffffffffffffffffffffffffff16908060020160009054906101000a900473ffffffffffffffffffffffffffffffffffffffff16908060030160009054906101000a900473ffffffffffffffffffffffffffffffffffffffff1690806004018054610916906111c7565b80601f0160208091040260200160405190810160405280929190818152602001828054610942906111c7565b801561098f5780601f106109645761010080835404028352916020019161098f565b820191906000526020600020905b81548152906001019060200180831161097257829003601f168201915b5050505050908060050160009054906101000a900460ff16905086565b6040518060c0016040528060008152602001600073ffffffffffffffffffffffffffffffffffffffff168152602001600073ffffffffffffffffffffffffffffffffffffffff168152602001600073ffffffffffffffffffffffffffffffffffffffff1681526020016060815260200160006002811115610a3057610a2f610e19565b5b81525090565b6000604051905090565b600080fd5b600080fd5b600073ffffffffffffffffffffffffffffffffffffffff82169050919050565b6000610a7582610a4a565b9050919050565b610a8581610a6a565b8114610a9057600080fd5b50565b600081359050610aa281610a7c565b92915050565b600060208284031215610abe57610abd610a40565b5b6000610acc84828501610a93565b91505092915050565b6000819050919050565b610ae881610ad5565b82525050565b6000602082019050610b036000830184610adf565b92915050565b600080fd5b600080fd5b6000601f19601f8301169050919050565b7f4e487b7100000000000000000000000000000000000000000000000000000000600052604160045260246000fd5b610b5c82610b13565b810181811067ffffffffffffffff82111715610b7b57610b7a610b24565b5b80604052505050565b6000610b8e610a36565b9050610b9a8282610b53565b919050565b600067ffffffffffffffff821115610bba57610bb9610b24565b5b610bc382610b13565b9050602081019050919050565b82818337600083830152505050565b6000610bf2610bed84610b9f565b610b84565b905082815260208101848484011115610c0e57610c0d610b0e565b5b610c19848285610bd0565b509392505050565b600082601f830112610c3657610c35610b09565b5b8135610c46848260208601610bdf565b91505092915050565b600080600060608486031215610c6857610c67610a40565b5b6000610c7686828701610a93565b9350506020610c8786828701610a93565b925050604084013567ffffffffffffffff811115610ca857610ca7610a45565b5b610cb486828701610c21565b9150509250925092565b610cc781610ad5565b8114610cd257600080fd5b50565b600081359050610ce481610cbe565b92915050565b60038110610cf757600080fd5b50565b600081359050610d0981610cea565b92915050565b60008060408385031215610d2657610d25610a40565b5b6000610d3485828601610cd5565b9250506020610d4585828601610cfa565b9150509250929050565b600060208284031215610d6557610d64610a40565b5b6000610d7384828501610cd5565b91505092915050565b610d8581610ad5565b82525050565b610d9481610a6a565b82525050565b600081519050919050565b600082825260208201905092915050565b60005b83811015610dd4578082015181840152602081019050610db9565b60008484015250505050565b6000610deb82610d9a565b610df58185610da5565b9350610e05818560208601610db6565b610e0e81610b13565b840191505092915050565b7f4e487b7100000000000000000000000000000000000000000000000000000000600052602160045260246000fd5b60038110610e5957610e58610e19565b5b50565b6000819050610e6a82610e48565b919050565b6000610e7a82610e5c565b9050919050565b610e8a81610e6f565b82525050565b600060c083016000830151610ea86000860182610d7c565b506020830151610ebb6020860182610d8b565b506040830151610ece6040860182610d8b565b506060830151610ee16060860182610d8b565b5060808301518482036080860152610ef98282610de0565b91505060a0830151610f0e60a0860182610e81565b508091505092915050565b60006020820190508181036000830152610f338184610e90565b905092915050565b610f4481610a6a565b82525050565b6000602082019050610f5f6000830184610f3b565b92915050565b600082825260208201905092915050565b6000610f8182610d9a565b610f8b8185610f65565b9350610f9b818560208601610db6565b610fa481610b13565b840191505092915050565b610fb881610e6f565b82525050565b600060c082019050610fd36000830189610adf565b610fe06020830188610f3b565b610fed6040830187610f3b565b610ffa6060830186610f3b565b818103608083015261100c8185610f76565b905061101b60a0830184610faf565b979650505050505050565b7f4e6f206a756467657320617661696c61626c6500000000000000000000000000600082015250565b600061105c601383610f65565b915061106782611026565b602082019050919050565b6000602082019050818103600083015261108b8161104f565b9050919050565b7f4e487b7100000000000000000000000000000000000000000000000000000000600052601260045260246000fd5b60006110cc82610ad5565b91506110d783610ad5565b9250826110e7576110e6611092565b5b828206905092915050565b7f4e487b7100000000000000000000000000000000000000000000000000000000600052603260045260246000fd5b7f4e487b7100000000000000000000000000000000000000000000000000000000600052601160045260246000fd5b600061115b82610ad5565b91507fffffffffffffffffffffffffffffffffffffffffffffffffffffffffffffffff820361118d5761118c611121565b5b600182019050919050565b7f4e487b7100000000000000000000000000000000000000000000000000000000600052602260045260246000fd5b600060028204905060018216806111df57607f821691505b6020821081036111f2576111f1611198565b5b50919050565b60008190508160005260206000209050919050565b60006020601f8301049050919050565b600082821b905092915050565b60006008830261125a7fffffffffffffffffffffffffffffffffffffffffffffffffffffffffffffffff8261121d565b611264868361121d565b95508019841693508086168417925050509392505050565b6000819050919050565b60006112a161129c61129784610ad5565b61127c565b610ad5565b9050919050565b6000819050919050565b6112bb83611286565b6112cf6112c7826112a8565b84845461122a565b825550505050565b600090565b6112e46112d7565b6112ef8184846112b2565b505050565b5b81811015611313576113086000826112dc565b6001810190506112f5565b5050565b601f82111561135857611329816111f8565b6113328461120d565b81016020851015611341578190505b61135561134d8561120d565b8301826112f4565b50505b505050565b600082821c905092915050565b600061137b6000198460080261135d565b1980831691505092915050565b6000611394838361136a565b9150826002028217905092915050565b6113ad82610d9a565b67ffffffffffffffff8111156113c6576113c5610b24565b5b6113d082546111c7565b6113db828285611317565b600060209050601f83116001811461140e57600084156113fc578287015190505b6114068582611388565b86555061146e565b601f19841661141c866111f8565b60005b828110156114445784890151825560018201915060208501945060208101905061141f565b86831015611461578489015161145d601f89168261136a565b8355505b6001600288020188555050505b505050505050565b600060808201905061148b6000830187610adf565b6114986020830186610f3b565b6114a56040830185610f3b565b6114b26060830184610f3b565b95945050505050565b7f4e6f7420617574686f72697a6564000000000000000000000000000000000000600082015250565b60006114f1600e83610f65565b91506114fc826114bb565b602082019050919050565b60006020820190508181036000830152611520816114e4565b9050919050565b600060408201905061153c6000830185610adf565b6115496020830184610faf565b939250505056fea2646970667358221220235c94561e10164a688829883c4a11d8d5a05edf74198432decf11ad550fc2a564736f6c63430008120033",
    "linkReferences": {},
    "deployedLinkReferences": {}
}