{
    "_format": "hh-sol-artifact-1",
    "contractName": "UserRegistry",
    "sourceName": "contracts/UserRegistry.sol",
    "abi": [
        {
            "anonymous": false,
            "inputs": [
                {
                    "indexed": false,
                    "internalType": "address",
                    "name": "user",
                    "type": "address"
                },
                {
                    "indexed": false,
                    "internalType": "string",
                    "name": "name",
                    "type": "string"
                },
                {
                    "indexed": false,
                    "internalType": "enum UserRegistry.Role",
                    "name": "role",
                    "type": "uint8"
                }
            ],
            "name": "UserRegistered",
            "type": "event"
        },
        {
            "inputs": [],
            "name": "getMyDetails",
            "outputs": [
                {
                    "components": [
                        {
                            "internalType": "string",
                            "name": "name",
                            "type": "string"
                        },
                        {
                            "internalType": "uint256",
                            "name": "aadharUID",
                            "type": "uint256"
                        },
                        {
                            "internalType": "enum UserRegistry.Role",
                            "name": "role",
                            "type": "uint8"
                        },
                        {
                            "internalType": "bool",
                            "name": "isRegistered",
                            "type": "bool"
                        }
                    ],
                    "internalType": "struct UserRegistry.User",
                    "name": "",
                    "type": "tuple"
                }
            ],
            "stateMutability": "view",
            "type": "function"
        },
        {
            "inputs": [
                {
                    "internalType": "string",
                    "name": "_name",
                    "type": "string"
                },
                {
                    "internalType": "uint256",
                    "name": "_aadharUID",
                    "type": "uint256"
                },
                {
                    "internalType": "enum UserRegistry.Role",
                    "name": "_role",
                    "type": "uint8"
                }
            ],
            "name": "registerUser",
            "outputs": [],
            "stateMutability": "nonpayable",
            "type": "function"
        },
        {
            "inputs": [
                {
                    "internalType": "address",
                    "name": "",
                    "type": "address"
                }
            ],
            "name": "users",
            "outputs": [
                {
                    "internalType": "string",
                    "name": "name",
                    "type": "string"
                },
                {
                    "internalType": "uint256",
                    "name": "aadharUID",
                    "type": "uint256"
                },
                {
                    "internalType": "enum UserRegistry.Role",
                    "name": "role",
                    "type": "uint8"
                },
                {
                    "internalType": "bool",
                    "name": "isRegistered",
                    "type": "bool"
                }
            ],
            "stateMutability": "view",
            "type": "function"
        }
    ],
    "bytecode": "0x608060405234801561001057600080fd5b50610e76806100206000396000f3fe608060405234801561001057600080fd5b50600436106100415760003560e01c8063431bbb7e146100465780638856a35e14610064578063a87430ba14610080575b600080fd5b61004e6100b3565b60405161005b91906106c4565b60405180910390f35b61007e60048036038101906100799190610880565b6101fb565b005b61009a6004803603810190610095919061094d565b610418565b6040516100aa94939291906109f1565b60405180910390f35b6100bb6104ea565b6000803373ffffffffffffffffffffffffffffffffffffffff1673ffffffffffffffffffffffffffffffffffffffff16815260200190815260200160002060405180608001604052908160008201805461011490610a6c565b80601f016020809104026020016040519081016040528092919081815260200182805461014090610a6c565b801561018d5780601f106101625761010080835404028352916020019161018d565b820191906000526020600020905b81548152906001019060200180831161017057829003601f168201915b50505050508152602001600182015481526020016002820160009054906101000a900460ff1660038111156101c5576101c46105cf565b5b60038111156101d7576101d66105cf565b5b81526020016002820160019054906101000a900460ff161515151581525050905090565b6000803373ffffffffffffffffffffffffffffffffffffffff1673ffffffffffffffffffffffffffffffffffffffff16815260200190815260200160002060020160019054906101000a900460ff161561028a576040517f08c379a000000000000000000000000000000000000000000000000000000000815260040161028190610ae9565b60405180910390fd5b6000600381111561029e5761029d6105cf565b5b8160038111156102b1576102b06105cf565b5b036102f1576040517f08c379a00000000000000000000000000000000000000000000000000000000081526004016102e890610b55565b60405180910390fd5b604051806080016040528084815260200183815260200182600381111561031b5761031a6105cf565b5b8152602001600115158152506000803373ffffffffffffffffffffffffffffffffffffffff1673ffffffffffffffffffffffffffffffffffffffff168152602001908152602001600020600082015181600001908161037a9190610d21565b506020820151816001015560408201518160020160006101000a81548160ff021916908360038111156103b0576103af6105cf565b5b021790555060608201518160020160016101000a81548160ff0219169083151502179055509050507fc2e5d5da58bd71d1a2d14cdef02a4256d971b728088f8190d067ccfbae3bd73e33848360405161040b93929190610e02565b60405180910390a1505050565b600060205280600052604060002060009150905080600001805461043b90610a6c565b80601f016020809104026020016040519081016040528092919081815260200182805461046790610a6c565b80156104b45780601f10610489576101008083540402835291602001916104b4565b820191906000526020600020905b81548152906001019060200180831161049757829003601f168201915b5050505050908060010154908060020160009054906101000a900460ff16908060020160019054906101000a900460ff16905084565b6040518060800160405280606081526020016000815260200160006003811115610517576105166105cf565b5b81526020016000151581525090565b600081519050919050565b600082825260208201905092915050565b60005b83811015610560578082015181840152602081019050610545565b60008484015250505050565b6000601f19601f8301169050919050565b600061058882610526565b6105928185610531565b93506105a2818560208601610542565b6105ab8161056c565b840191505092915050565b6000819050919050565b6105c9816105b6565b82525050565b7f4e487b7100000000000000000000000000000000000000000000000000000000600052602160045260246000fd5b6004811061060f5761060e6105cf565b5b50565b6000819050610620826105fe565b919050565b600061063082610612565b9050919050565b61064081610625565b82525050565b60008115159050919050565b61065b81610646565b82525050565b6000608083016000830151848203600086015261067e828261057d565b915050602083015161069360208601826105c0565b5060408301516106a66040860182610637565b5060608301516106b96060860182610652565b508091505092915050565b600060208201905081810360008301526106de8184610661565b905092915050565b6000604051905090565b600080fd5b600080fd5b600080fd5b600080fd5b7f4e487b7100000000000000000000000000000000000000000000000000000000600052604160045260246000fd5b61073c8261056c565b810181811067ffffffffffffffff8211171561075b5761075a610704565b5b80604052505050565b600061076e6106e6565b905061077a8282610733565b919050565b600067ffffffffffffffff82111561079a57610799610704565b5b6107a38261056c565b9050602081019050919050565b82818337600083830152505050565b60006107d26107cd8461077f565b610764565b9050828152602081018484840111156107ee576107ed6106ff565b5b6107f98482856107b0565b509392505050565b600082601f830112610816576108156106fa565b5b81356108268482602086016107bf565b91505092915050565b610838816105b6565b811461084357600080fd5b50565b6000813590506108558161082f565b92915050565b6004811061086857600080fd5b50565b60008135905061087a8161085b565b92915050565b600080600060608486031215610899576108986106f0565b5b600084013567ffffffffffffffff8111156108b7576108b66106f5565b5b6108c386828701610801565b93505060206108d486828701610846565b92505060406108e58682870161086b565b9150509250925092565b600073ffffffffffffffffffffffffffffffffffffffff82169050919050565b600061091a826108ef565b9050919050565b61092a8161090f565b811461093557600080fd5b50565b60008135905061094781610921565b92915050565b600060208284031215610963576109626106f0565b5b600061097184828501610938565b91505092915050565b600082825260208201905092915050565b600061099682610526565b6109a0818561097a565b93506109b0818560208601610542565b6109b98161056c565b840191505092915050565b6109cd816105b6565b82525050565b6109dc81610625565b82525050565b6109eb81610646565b82525050565b60006080820190508181036000830152610a0b818761098b565b9050610a1a60208301866109c4565b610a2760408301856109d3565b610a3460608301846109e2565b95945050505050565b7f4e487b7100000000000000000000000000000000000000000000000000000000600052602260045260246000fd5b60006002820490506001821680610a8457607f821691505b602082108103610a9757610a96610a3d565b5b50919050565b7f416c726561647920726567697374657265640000000000000000000000000000600082015250565b6000610ad360128361097a565b9150610ade82610a9d565b602082019050919050565b60006020820190508181036000830152610b0281610ac6565b9050919050565b7f496e76616c696420726f6c650000000000000000000000000000000000000000600082015250565b6000610b3f600c8361097a565b9150610b4a82610b09565b602082019050919050565b60006020820190508181036000830152610b6e81610b32565b9050919050565b60008190508160005260206000209050919050565b60006020601f8301049050919050565b600082821b905092915050565b600060088302610bd77fffffffffffffffffffffffffffffffffffffffffffffffffffffffffffffffff82610b9a565b610be18683610b9a565b95508019841693508086168417925050509392505050565b6000819050919050565b6000610c1e610c19610c14846105b6565b610bf9565b6105b6565b9050919050565b6000819050919050565b610c3883610c03565b610c4c610c4482610c25565b848454610ba7565b825550505050565b600090565b610c61610c54565b610c6c818484610c2f565b505050565b5b81811015610c9057610c85600082610c59565b600181019050610c72565b5050565b601f821115610cd557610ca681610b75565b610caf84610b8a565b81016020851015610cbe578190505b610cd2610cca85610b8a565b830182610c71565b50505b505050565b600082821c905092915050565b6000610cf860001984600802610cda565b1980831691505092915050565b6000610d118383610ce7565b9150826002028217905092915050565b610d2a82610526565b67ffffffffffffffff811115610d4357610d42610704565b5b610d4d8254610a6c565b610d58828285610c94565b600060209050601f831160018114610d8b5760008415610d79578287015190505b610d838582610d05565b865550610deb565b601f198416610d9986610b75565b60005b82811015610dc157848901518255600182019150602085019450602081019050610d9c565b86831015610dde5784890151610dda601f891682610ce7565b8355505b6001600288020188555050505b505050505050565b610dfc8161090f565b82525050565b6000606082019050610e176000830186610df3565b8181036020830152610e29818561098b565b9050610e3860408301846109d3565b94935050505056fea2646970667358221220bf808a01e4b257621291d540e89763df509ad1e583fb30f9bedfc2917578bc8e64736f6c63430008120033",
    "linkReferences": {},
    "deployedLinkReferences": {}
}