{
  "_format": "hh-sol-artifact-1",
  "contractName": "CaseManager",
  "sourceName": "backend/contracts/CaseManager.sol",
  "abi": [
    {
      "inputs": [
        {
          "internalType": "address",
          "name": "_userRegistryAddress",
          "type": "address"
        }
      ],
      "stateMutability": "nonpayable",
      "type": "constructor"
    },
    {
      "anonymous": false,
      "inputs": [
        {
          "indexed": true,
          "internalType": "uint256",
          "name": "caseId",
          "type": "uint256"
        },
        {
          "indexed": true,
          "internalType": "address",
          "name": "client",
          "type": "address"
        },
        {
          "indexed": true,
          "internalType": "address",
          "name": "lawyer",
          "type": "address"
        },
        {
          "indexed": false,
          "internalType": "address",
          "name": "judge",
          "type": "address"
        }
      ],
      "name": "CaseRegistered",
      "type": "event"
    },
    {
      "anonymous": false,
      "inputs": [
        {
          "indexed": true,
          "internalType": "uint256",
          "name": "caseId",
          "type": "uint256"
        },
        {
          "indexed": false,
          "internalType": "enum CaseManager.CaseStatus",
          "name": "status",
          "type": "uint8"
        }
      ],
      "name": "CaseStatusUpdated",
      "type": "event"
    },
    {
      "anonymous": false,
      "inputs": [
        {
          "indexed": true,
          "internalType": "uint256",
          "name": "caseId",
          "type": "uint256"
        },
        {
          "indexed": false,
          "internalType": "string",
          "name": "name",
          "type": "string"
        },
        {
          "indexed": false,
          "internalType": "string",
          "name": "documentCID",
          "type": "string"
        },
        {
          "indexed": true,
          "internalType": "address",
          "name": "uploadedBy",
          "type": "address"
        }
      ],
      "name": "DocumentAdded",
      "type": "event"
    },
    {
      "anonymous": false,
      "inputs": [
        {
          "indexed": true,
          "internalType": "uint256",
          "name": "caseId",
          "type": "uint256"
        },
        {
          "indexed": true,
          "internalType": "uint256",
          "name": "hearingId",
          "type": "uint256"
        }
      ],
      "name": "HearingCompleted",
      "type": "event"
    },
    {
      "anonymous": false,
      "inputs": [
        {
          "indexed": true,
          "internalType": "uint256",
          "name": "caseId",
          "type": "uint256"
        },
        {
          "indexed": true,
          "internalType": "uint256",
          "name": "hearingId",
          "type": "uint256"
        },
        {
          "indexed": false,
          "internalType": "uint256",
          "name": "scheduledDate",
          "type": "uint256"
        }
      ],
      "name": "HearingScheduled",
      "type": "event"
    },
    {
      "inputs": [
        {
          "internalType": "uint256",
          "name": "_caseId",
          "type": "uint256"
        },
        {
          "internalType": "string",
          "name": "_name",
          "type": "string"
        },
        {
          "internalType": "string",
          "name": "_documentCID",
          "type": "string"
        },
        {
          "internalType": "string",
          "name": "_documentType",
          "type": "string"
        },
        {
          "internalType": "bool",
          "name": "_isPublic",
          "type": "bool"
        }
      ],
      "name": "addDocument",
      "outputs": [],
      "stateMutability": "nonpayable",
      "type": "function"
    },
    {
      "inputs": [],
      "name": "caseCounter",
      "outputs": [
        {
          "internalType": "uint256",
          "name": "",
          "type": "uint256"
        }
      ],
      "stateMutability": "view",
      "type": "function"
    },
    {
      "inputs": [
        {
          "internalType": "uint256",
          "name": "",
          "type": "uint256"
        },
        {
          "internalType": "uint256",
          "name": "",
          "type": "uint256"
        }
      ],
      "name": "caseDocuments",
      "outputs": [
        {
          "internalType": "string",
          "name": "name",
          "type": "string"
        },
        {
          "internalType": "string",
          "name": "documentCID",
          "type": "string"
        },
        {
          "internalType": "string",
          "name": "documentType",
          "type": "string"
        },
        {
          "internalType": "address",
          "name": "uploadedBy",
          "type": "address"
        },
        {
          "internalType": "uint256",
          "name": "uploadDate",
          "type": "uint256"
        },
        {
          "internalType": "bool",
          "name": "isPublic",
          "type": "bool"
        }
      ],
      "stateMutability": "view",
      "type": "function"
    },
    {
      "inputs": [
        {
          "internalType": "uint256",
          "name": "",
          "type": "uint256"
        },
        {
          "internalType": "uint256",
          "name": "",
          "type": "uint256"
        }
      ],
      "name": "caseHearings",
      "outputs": [
        {
          "internalType": "uint256",
          "name": "hearingId",
          "type": "uint256"
        },
        {
          "internalType": "uint256",
          "name": "caseId",
          "type": "uint256"
        },
        {
          "internalType": "uint256",
          "name": "scheduledDate",
          "type": "uint256"
        },
        {
          "internalType": "string",
          "name": "location",
          "type": "string"
        },
        {
          "internalType": "string",
          "name": "description",
          "type": "string"
        },
        {
          "internalType": "bool",
          "name": "completed",
          "type": "bool"
        }
      ],
      "stateMutability": "view",
      "type": "function"
    },
    {
      "inputs": [
        {
          "internalType": "uint256",
          "name": "",
          "type": "uint256"
        }
      ],
      "name": "cases",
      "outputs": [
        {
          "internalType": "uint256",
          "name": "caseId",
          "type": "uint256"
        },
        {
          "internalType": "string",
          "name": "title",
          "type": "string"
        },
        {
          "internalType": "string",
          "name": "description",
          "type": "string"
        },
        {
          "internalType": "string",
          "name": "caseType",
          "type": "string"
        },
        {
          "internalType": "address",
          "name": "client",
          "type": "address"
        },
        {
          "internalType": "address",
          "name": "lawyer",
          "type": "address"
        },
        {
          "internalType": "address",
          "name": "judge",
          "type": "address"
        },
        {
          "internalType": "enum CaseManager.CaseStatus",
          "name": "status",
          "type": "uint8"
        },
        {
          "internalType": "uint256",
          "name": "filingDate",
          "type": "uint256"
        },
        {
          "internalType": "uint256",
          "name": "lastUpdated",
          "type": "uint256"
        }
      ],
      "stateMutability": "view",
      "type": "function"
    },
    {
      "inputs": [
        {
          "internalType": "address",
          "name": "",
          "type": "address"
        },
        {
          "internalType": "uint256",
          "name": "",
          "type": "uint256"
        }
      ],
      "name": "clientCases",
      "outputs": [
        {
          "internalType": "uint256",
          "name": "",
          "type": "uint256"
        }
      ],
      "stateMutability": "view",
      "type": "function"
    },
    {
      "inputs": [
        {
          "internalType": "uint256",
          "name": "_caseId",
          "type": "uint256"
        },
        {
          "internalType": "uint256",
          "name": "_hearingId",
          "type": "uint256"
        }
      ],
      "name": "completeHearing",
      "outputs": [],
      "stateMutability": "nonpayable",
      "type": "function"
    },
    {
      "inputs": [
        {
          "internalType": "uint256",
          "name": "_caseId",
          "type": "uint256"
        }
      ],
      "name": "getCaseDetails",
      "outputs": [
        {
          "components": [
            {
              "internalType": "uint256",
              "name": "caseId",
              "type": "uint256"
            },
            {
              "internalType": "string",
              "name": "title",
              "type": "string"
            },
            {
              "internalType": "string",
              "name": "description",
              "type": "string"
            },
            {
              "internalType": "string",
              "name": "caseType",
              "type": "string"
            },
            {
              "internalType": "address",
              "name": "client",
              "type": "address"
            },
            {
              "internalType": "address",
              "name": "lawyer",
              "type": "address"
            },
            {
              "internalType": "address",
              "name": "judge",
              "type": "address"
            },
            {
              "internalType": "enum CaseManager.CaseStatus",
              "name": "status",
              "type": "uint8"
            },
            {
              "internalType": "uint256",
              "name": "filingDate",
              "type": "uint256"
            },
            {
              "internalType": "uint256",
              "name": "lastUpdated",
              "type": "uint256"
            },
            {
              "internalType": "string[]",
              "name": "documentCIDs",
              "type": "string[]"
            }
          ],
          "internalType": "struct CaseManager.LegalCase",
          "name": "",
          "type": "tuple"
        }
      ],
      "stateMutability": "view",
      "type": "function"
    },
    {
      "inputs": [
        {
          "internalType": "uint256",
          "name": "_caseId",
          "type": "uint256"
        }
      ],
      "name": "getCaseDocuments",
      "outputs": [
        {
          "components": [
            {
              "internalType": "string",
              "name": "name",
              "type": "string"
            },
            {
              "internalType": "string",
              "name": "documentCID",
              "type": "string"
            },
            {
              "internalType": "string",
              "name": "documentType",
              "type": "string"
            },
            {
              "internalType": "address",
              "name": "uploadedBy",
              "type": "address"
            },
            {
              "internalType": "uint256",
              "name": "uploadDate",
              "type": "uint256"
            },
            {
              "internalType": "bool",
              "name": "isPublic",
              "type": "bool"
            }
          ],
          "internalType": "struct CaseManager.Document[]",
          "name": "",
          "type": "tuple[]"
        }
      ],
      "stateMutability": "view",
      "type": "function"
    },
    {
      "inputs": [
        {
          "internalType": "uint256",
          "name": "_caseId",
          "type": "uint256"
        }
      ],
      "name": "getCaseHearings",
      "outputs": [
        {
          "components": [
            {
              "internalType": "uint256",
              "name": "hearingId",
              "type": "uint256"
            },
            {
              "internalType": "uint256",
              "name": "caseId",
              "type": "uint256"
            },
            {
              "internalType": "uint256",
              "name": "scheduledDate",
              "type": "uint256"
            },
            {
              "internalType": "string",
              "name": "location",
              "type": "string"
            },
            {
              "internalType": "string",
              "name": "description",
              "type": "string"
            },
            {
              "internalType": "bool",
              "name": "completed",
              "type": "bool"
            }
          ],
          "internalType": "struct CaseManager.Hearing[]",
          "name": "",
          "type": "tuple[]"
        }
      ],
      "stateMutability": "view",
      "type": "function"
    },
    {
      "inputs": [
        {
          "internalType": "address",
          "name": "_client",
          "type": "address"
        }
      ],
      "name": "getClientCases",
      "outputs": [
        {
          "internalType": "uint256[]",
          "name": "",
          "type": "uint256[]"
        }
      ],
      "stateMutability": "view",
      "type": "function"
    },
    {
      "inputs": [
        {
          "internalType": "address",
          "name": "_judge",
          "type": "address"
        }
      ],
      "name": "getJudgeCases",
      "outputs": [
        {
          "internalType": "uint256[]",
          "name": "",
          "type": "uint256[]"
        }
      ],
      "stateMutability": "view",
      "type": "function"
    },
    {
      "inputs": [
        {
          "internalType": "address",
          "name": "_lawyer",
          "type": "address"
        }
      ],
      "name": "getLawyerCases",
      "outputs": [
        {
          "internalType": "uint256[]",
          "name": "",
          "type": "uint256[]"
        }
      ],
      "stateMutability": "view",
      "type": "function"
    },
    {
      "inputs": [],
      "name": "hearingCounter",
      "outputs": [
        {
          "internalType": "uint256",
          "name": "",
          "type": "uint256"
        }
      ],
      "stateMutability": "view",
      "type": "function"
    },
    {
      "inputs": [
        {
          "internalType": "address",
          "name": "",
          "type": "address"
        },
        {
          "internalType": "uint256",
          "name": "",
          "type": "uint256"
        }
      ],
      "name": "judgeCases",
      "outputs": [
        {
          "internalType": "uint256",
          "name": "",
          "type": "uint256"
        }
      ],
      "stateMutability": "view",
      "type": "function"
    },
    {
      "inputs": [
        {
          "internalType": "address",
          "name": "",
          "type": "address"
        },
        {
          "internalType": "uint256",
          "name": "",
          "type": "uint256"
        }
      ],
      "name": "lawyerCases",
      "outputs": [
        {
          "internalType": "uint256",
          "name": "",
          "type": "uint256"
        }
      ],
      "stateMutability": "view",
      "type": "function"
    },
    {
      "inputs": [
        {
          "internalType": "string",
          "name": "_title",
          "type": "string"
        },
        {
          "internalType": "string",
          "name": "_description",
          "type": "string"
        },
        {
          "internalType": "string",
          "name": "_caseType",
          "type": "string"
        },
        {
          "internalType": "address",
          "name": "_lawyer",
          "type": "address"
        }
      ],
      "name": "registerCase",
      "outputs": [
        {
          "internalType": "uint256",
          "name": "",
          "type": "uint256"
        }
      ],
      "stateMutability": "nonpayable",
      "type": "function"
    },
    {
      "inputs": [
        {
          "internalType": "address",
          "name": "_judge",
          "type": "address"
        }
      ],
      "name": "registerJudge",
      "outputs": [],
      "stateMutability": "nonpayable",
      "type": "function"
    },
    {
      "inputs": [
        {
          "internalType": "uint256",
          "name": "_caseId",
          "type": "uint256"
        },
        {
          "internalType": "uint256",
          "name": "_scheduledDate",
          "type": "uint256"
        },
        {
          "internalType": "string",
          "name": "_location",
          "type": "string"
        },
        {
          "internalType": "string",
          "name": "_description",
          "type": "string"
        }
      ],
      "name": "scheduleHearing",
      "outputs": [
        {
          "internalType": "uint256",
          "name": "",
          "type": "uint256"
        }
      ],
      "stateMutability": "nonpayable",
      "type": "function"
    },
    {
      "inputs": [
        {
          "internalType": "uint256",
          "name": "_caseId",
          "type": "uint256"
        },
        {
          "internalType": "enum CaseManager.CaseStatus",
          "name": "_status",
          "type": "uint8"
        }
      ],
      "name": "updateCaseStatus",
      "outputs": [],
      "stateMutability": "nonpayable",
      "type": "function"
    },
    {
      "inputs": [],
      "name": "userRegistry",
      "outputs": [
        {
          "internalType": "contract UserRegistry",
          "name": "",
          "type": "address"
        }
      ],
      "stateMutability": "view",
      "type": "function"
    }
  ],
  "bytecode": "0x60806040523480156200001157600080fd5b506040516200302d3803806200302d833981016040819052620000349162000062565b600880546001600160a01b0319166001600160a01b0392909216919091179055600080805560015562000094565b6000602082840312156200007557600080fd5b81516001600160a01b03811681146200008d57600080fd5b9392505050565b612f8980620000a46000396000f3fe608060405234801561001057600080fd5b50600436106101375760003560e01c80635c7460d6116100b8578063ab5c3b831161007c578063ab5c3b83146102b4578063c3022205146102d4578063c3a90635146102e7578063e04ba43114610307578063f09790dd1461031a578063fea725921461034357600080fd5b80635c7460d6146102305780638bfeffe51461025b5780638ca767ae1461027b578063908427171461028e578063a5021aec146102a157600080fd5b80631d139059116100ff5780631d139059146101c157806327290bd8146101e657806343ab8dd3146101f95780634d26f15c146102025780635b0a05451461022757600080fd5b8063063d130f1461013c5780630e67c2c11461016557806316b2d5b31461017a578063192132271461019b5780631ad6ead9146101ae575b600080fd5b61014f61014a366004612376565b610356565b60405161015c91906123df565b60405180910390f35b610178610173366004612558565b610549565b005b61018d610188366004612619565b610792565b60405190815260200161015c565b61018d6101a9366004612645565b6107c3565b6101786101bc3660046126bc565b610aa5565b6101d46101cf3660046126bc565b610d29565b60405161015c969594939291906126de565b6101786101f436600461272b565b610e95565b61018d60005481565b6102156102103660046126bc565b610fa3565b60405161015c9695949392919061274f565b61018d60015481565b600854610243906001600160a01b031681565b6040516001600160a01b03909116815260200161015c565b61026e61026936600461272b565b6111a3565b60405161015c91906127b2565b6101786102893660046127f6565b61120f565b61018d61029c366004612619565b6113c0565b61018d6102af36600461282a565b6113dc565b6102c76102c2366004612376565b611969565b60405161015c91906128c5565b61018d6102e2366004612619565b611bdc565b6102fa6102f5366004612376565b611bf8565b60405161015c9190612a0e565b61026e61031536600461272b565b611f64565b61032d610328366004612376565b611fce565b60405161015c9a99989796959493929190612b0f565b61026e61035136600461272b565b6121c9565b606060008211801561036a57506000548211155b61038f5760405162461bcd60e51b815260040161038690612b9b565b60405180910390fd5b600082815260046020908152604080832080548251818502810185019093528083529193909284015b8282101561053e57838290600052602060002090600602016040518060c001604052908160008201548152602001600182015481526020016002820154815260200160038201805461040990612bc4565b80601f016020809104026020016040519081016040528092919081815260200182805461043590612bc4565b80156104825780601f1061045757610100808354040283529160200191610482565b820191906000526020600020905b81548152906001019060200180831161046557829003601f168201915b5050505050815260200160048201805461049b90612bc4565b80601f01602080910402602001604051908101604052809291908181526020018280546104c790612bc4565b80156105145780601f106104e957610100808354040283529160200191610514565b820191906000526020600020905b8154815290600101906020018083116104f757829003601f168201915b50505091835250506005919091015460ff16151560209182015290825260019290920191016103b8565b505050509050919050565b8460008111801561055c57506000548111155b6105785760405162461bcd60e51b815260040161038690612b9b565b600081815260026020526040902060048101546001600160a01b03163314806105ad575060058101546001600160a01b031633145b806105c4575060068101546001600160a01b031633145b6105e05760405162461bcd60e51b815260040161038690612bfe565b60008551116106315760405162461bcd60e51b815260206004820152601860248201527f446f63756d656e742043494420697320726571756972656400000000000000006044820152606401610386565b6040805160c081018252878152602080820188905281830187905233606083015242608083015285151560a083015260008a8152600382529283208054600181018255908452922081519192839260069091029091019081906106949082612c8f565b50602082015160018201906106a99082612c8f565b50604082015160028201906106be9082612c8f565b5060608201516003820180546001600160a01b0319166001600160a01b039092169190911790556080820151600482015560a0909101516005909101805460ff19169115159190911790556000888152600260209081526040822060090180546001810182559083529120016107348782612c8f565b50600088815260026020526040908190204260089091015551339089907fd73deb6dacfedc577a99fc8333d7e97a792d6c4f2c9cbe9131c33bc9fce0f55c90610780908b908b90612d4f565b60405180910390a35050505050505050565b600560205281600052604060002081815481106107ae57600080fd5b90600052602060002001600091509150505481565b6000846000811180156107d857506000548111155b6107f45760405162461bcd60e51b815260040161038690612b9b565b600081815260026020526040902060048101546001600160a01b0316331480610829575060058101546001600160a01b031633145b80610840575060068101546001600160a01b031633145b61085c5760405162461bcd60e51b815260040161038690612bfe565b60408051808201825260058152646a7564676560d81b6020909101526008549051632782085160e01b81523360048201527fb4de859adabd017c7b415a76c04fa22c886051d428b48a0b3acc6790b51b66d2916001600160a01b031690632782085190602401600060405180830381865afa1580156108df573d6000803e3d6000fd5b505050506040513d6000823e601f3d908101601f191682016040526109079190810190612d7d565b805190602001201461092b5760405162461bcd60e51b815260040161038690612deb565b4286116109855760405162461bcd60e51b815260206004820152602260248201527f48656172696e672064617465206d75737420626520696e207468652066757475604482015261726560f01b6064820152608401610386565b6001805490600061099583612e2e565b90915550506040805160c08101825260018054825260208083018b81528385018b8152606085018b8152608086018b9052600060a087018190528e81526004855296872080548087018255908852939096208551600690940201928355905192820192909255905160028201559151909182916003820190610a179082612c8f565b5060808201516004820190610a2c9082612c8f565b5060a091909101516005909101805460ff19169115159190911790556000888152600260209081526040918290204260089091015560015491518981528a917f5e1b519af5956d889e563dad3bcd8fe084fd9375abd71ef7da40d96cff929bee910160405180910390a350506001549695505050505050565b81600081118015610ab857506000548111155b610ad45760405162461bcd60e51b815260040161038690612b9b565b600081815260026020526040902060048101546001600160a01b0316331480610b09575060058101546001600160a01b031633145b80610b20575060068101546001600160a01b031633145b610b3c5760405162461bcd60e51b815260040161038690612bfe565b60408051808201825260058152646a7564676560d81b6020909101526008549051632782085160e01b81523360048201527fb4de859adabd017c7b415a76c04fa22c886051d428b48a0b3acc6790b51b66d2916001600160a01b031690632782085190602401600060405180830381865afa158015610bbf573d6000803e3d6000fd5b505050506040513d6000823e601f3d908101601f19168201604052610be79190810190612d7d565b8051906020012014610c0b5760405162461bcd60e51b815260040161038690612deb565b600084815260046020526040812090805b8254811015610ca05785838281548110610c3857610c38612e55565b90600052602060002090600602016000015403610c8e576001838281548110610c6357610c63612e55565b60009182526020909120600690910201600501805460ff191691151591909117905560019150610ca0565b80610c9881612e2e565b915050610c1c565b5080610ce25760405162461bcd60e51b81526020600482015260116024820152701219585c9a5b99c81b9bdd08199bdd5b99607a1b6044820152606401610386565b6000868152600260205260408082204260089091015551869188917f1d50a9819c7fbe7bf34950a5e7c72c69efe88f863ed02dd73fcaefec13dfb99e9190a3505050505050565b60046020528160005260406000208181548110610d4557600080fd5b906000526020600020906006020160009150915050806000015490806001015490806002015490806003018054610d7b90612bc4565b80601f0160208091040260200160405190810160405280929190818152602001828054610da790612bc4565b8015610df45780601f10610dc957610100808354040283529160200191610df4565b820191906000526020600020905b815481529060010190602001808311610dd757829003601f168201915b505050505090806004018054610e0990612bc4565b80601f0160208091040260200160405190810160405280929190818152602001828054610e3590612bc4565b8015610e825780601f10610e5757610100808354040283529160200191610e82565b820191906000526020600020905b815481529060010190602001808311610e6557829003601f168201915b5050506005909301549192505060ff1686565b60408051808201825260058152646a7564676560d81b6020909101526008549051632782085160e01b81526001600160a01b0383811660048301527fb4de859adabd017c7b415a76c04fa22c886051d428b48a0b3acc6790b51b66d2921690632782085190602401600060405180830381865afa158015610f1a573d6000803e3d6000fd5b505050506040513d6000823e601f3d908101601f19168201604052610f429190810190612d7d565b8051906020012014610fa05760405162461bcd60e51b815260206004820152602160248201527f41646472657373206973206e6f7420612072656769737465726564206a7564676044820152606560f81b6064820152608401610386565b50565b60036020528160005260406000208181548110610fbf57600080fd5b906000526020600020906006020160009150915050806000018054610fe390612bc4565b80601f016020809104026020016040519081016040528092919081815260200182805461100f90612bc4565b801561105c5780601f106110315761010080835404028352916020019161105c565b820191906000526020600020905b81548152906001019060200180831161103f57829003601f168201915b50505050509080600101805461107190612bc4565b80601f016020809104026020016040519081016040528092919081815260200182805461109d90612bc4565b80156110ea5780601f106110bf576101008083540402835291602001916110ea565b820191906000526020600020905b8154815290600101906020018083116110cd57829003601f168201915b5050505050908060020180546110ff90612bc4565b80601f016020809104026020016040519081016040528092919081815260200182805461112b90612bc4565b80156111785780601f1061114d57610100808354040283529160200191611178565b820191906000526020600020905b81548152906001019060200180831161115b57829003601f168201915b505050506003830154600484015460059094015492936001600160a01b039091169290915060ff1686565b6001600160a01b03811660009081526006602090815260409182902080548351818402810184019094528084526060939283018282801561120357602002820191906000526020600020905b8154815260200190600101908083116111ef575b50505050509050919050565b8160008111801561122257506000548111155b61123e5760405162461bcd60e51b815260040161038690612b9b565b600081815260026020526040902060048101546001600160a01b0316331480611273575060058101546001600160a01b031633145b8061128a575060068101546001600160a01b031633145b6112a65760405162461bcd60e51b815260040161038690612bfe565b600084815260026020526040902060058101546001600160a01b03163314806112db575060068101546001600160a01b031633145b61134d5760405162461bcd60e51b815260206004820152603860248201527f4f6e6c79207468652061737369676e6564206c6177796572206f72206a75646760448201527f652063616e2075706461746520636173652073746174757300000000000000006064820152608401610386565b60068101805485919060ff60a01b1916600160a01b83600581111561137457611374612981565b021790555042600882015560405185907f63ddd364849237939ab7ab73ff6b6d90913684f5afc06bb1de7afb96360177b7906113b1908790612e6b565b60405180910390a25050505050565b600660205281600052604060002081815481106107ae57600080fd5b604080518082018252600681526518db1a595b9d60d21b6020909101526008549051632782085160e01b81523360048201526000917f971ee2c8925badb60ae2abac1a4faf0aa9b739dd57ac1b3b7a1e150be855cde3916001600160a01b0390911690632782085190602401600060405180830381865afa158015611465573d6000803e3d6000fd5b505050506040513d6000823e601f3d908101601f1916820160405261148d9190810190612d7d565b80519060200120146114ed5760405162461bcd60e51b8152602060048201526024808201527f4f6e6c7920636c69656e74732063616e20706572666f726d20746869732061636044820152633a34b7b760e11b6064820152608401610386565b60408051808201825260068152653630bbbcb2b960d11b6020909101526008549051632782085160e01b81526001600160a01b0384811660048301527f411f47435235551fc34830731476da73bb636e8ba288c1dad010a634d887930c921690632782085190602401600060405180830381865afa158015611573573d6000803e3d6000fd5b505050506040513d6000823e601f3d908101601f1916820160405261159b9190810190612d7d565b80519060200120146115e85760405162461bcd60e51b8152602060048201526016602482015275496e76616c6964206c6177796572206164647265737360501b6044820152606401610386565b6008546040805163604207ab60e11b815290516000926001600160a01b03169163c0840f5691600480830192869291908290030181865afa158015611631573d6000803e3d6000fd5b505050506040513d6000823e601f3d908101601f191682016040526116599190810190612e7f565b905060008151116116b65760405162461bcd60e51b815260206004820152602160248201527f4e6f206a756467657320617661696c61626c6520696e207468652073797374656044820152606d60f81b6064820152608401610386565b60008182516000546116c89190612f31565b815181106116d8576116d8612e55565b602002602001015190506000808154809291906116f490612e2e565b91905055506040518061016001604052806000548152602001888152602001878152602001868152602001336001600160a01b03168152602001856001600160a01b03168152602001826001600160a01b031681526020016000600581111561175f5761175f612981565b81524260208201819052604082015260600160006040519080825280602002602001820160405280156117a657816020015b60608152602001906001900390816117915790505b509052600080548152600260209081526040909120825181559082015160018201906117d29082612c8f565b50604082015160028201906117e79082612c8f565b50606082015160038201906117fc9082612c8f565b5060808201516004820180546001600160a01b03199081166001600160a01b039384161790915560a08401516005808501805484169285169290921790915560c085015160068501805493841691909416908117845560e086015193926001600160a81b0319161790600160a01b90849081111561187c5761187c612981565b02179055506101008201516007820155610120820151600882015561014082015180516118b3916009840191602090910190612233565b5050336000818152600560209081526040808320835481546001808201845592865284862001556001600160a01b038a81168086526006855283862086548154808601835591885286882090910155908816808652600785528386208654815494850182559087528587209093019290925593549151908152929450917fb6cf3a3bbbbc7f78f8e81802ac2c04bce34fcac86e2681913a837f9d4ae71fa2910160405180910390a4505060005495945050505050565b606060008211801561197d57506000548211155b6119995760405162461bcd60e51b815260040161038690612b9b565b600082815260036020908152604080832080548251818502810185019093528083529193909284015b8282101561053e57838290600052602060002090600602016040518060c00160405290816000820180546119f590612bc4565b80601f0160208091040260200160405190810160405280929190818152602001828054611a2190612bc4565b8015611a6e5780601f10611a4357610100808354040283529160200191611a6e565b820191906000526020600020905b815481529060010190602001808311611a5157829003601f168201915b50505050508152602001600182018054611a8790612bc4565b80601f0160208091040260200160405190810160405280929190818152602001828054611ab390612bc4565b8015611b005780601f10611ad557610100808354040283529160200191611b00565b820191906000526020600020905b815481529060010190602001808311611ae357829003601f168201915b50505050508152602001600282018054611b1990612bc4565b80601f0160208091040260200160405190810160405280929190818152602001828054611b4590612bc4565b8015611b925780601f10611b6757610100808354040283529160200191611b92565b820191906000526020600020905b815481529060010190602001808311611b7557829003601f168201915b505050918352505060038201546001600160a01b03166020808301919091526004830154604083015260059092015460ff16151560609091015290825260019290920191016119c2565b600760205281600052604060002081815481106107ae57600080fd5b611c00612289565b600082118015611c1257506000548211155b611c2e5760405162461bcd60e51b815260040161038690612b9b565b600260008381526020019081526020016000206040518061016001604052908160008201548152602001600182018054611c6790612bc4565b80601f0160208091040260200160405190810160405280929190818152602001828054611c9390612bc4565b8015611ce05780601f10611cb557610100808354040283529160200191611ce0565b820191906000526020600020905b815481529060010190602001808311611cc357829003601f168201915b50505050508152602001600282018054611cf990612bc4565b80601f0160208091040260200160405190810160405280929190818152602001828054611d2590612bc4565b8015611d725780601f10611d4757610100808354040283529160200191611d72565b820191906000526020600020905b815481529060010190602001808311611d5557829003601f168201915b50505050508152602001600382018054611d8b90612bc4565b80601f0160208091040260200160405190810160405280929190818152602001828054611db790612bc4565b8015611e045780601f10611dd957610100808354040283529160200191611e04565b820191906000526020600020905b815481529060010190602001808311611de757829003601f168201915b505050918352505060048201546001600160a01b0390811660208301526005808401548216604084015260068401549182166060840152608090920191600160a01b90910460ff1690811115611e5c57611e5c612981565b6005811115611e6d57611e6d612981565b8152602001600782015481526020016008820154815260200160098201805480602002602001604051908101604052809291908181526020016000905b82821015611f56578382906000526020600020018054611ec990612bc4565b80601f0160208091040260200160405190810160405280929190818152602001828054611ef590612bc4565b8015611f425780601f10611f1757610100808354040283529160200191611f42565b820191906000526020600020905b815481529060010190602001808311611f2557829003601f168201915b505050505081526020019060010190611eaa565b505050915250909392505050565b6001600160a01b03811660009081526007602090815260409182902080548351818402810184019094528084526060939283018282801561120357602002820191906000526020600020908154815260200190600101908083116111ef5750505050509050919050565b60026020526000908152604090208054600182018054919291611ff090612bc4565b80601f016020809104026020016040519081016040528092919081815260200182805461201c90612bc4565b80156120695780601f1061203e57610100808354040283529160200191612069565b820191906000526020600020905b81548152906001019060200180831161204c57829003601f168201915b50505050509080600201805461207e90612bc4565b80601f01602080910402602001604051908101604052809291908181526020018280546120aa90612bc4565b80156120f75780601f106120cc576101008083540402835291602001916120f7565b820191906000526020600020905b8154815290600101906020018083116120da57829003601f168201915b50505050509080600301805461210c90612bc4565b80601f016020809104026020016040519081016040528092919081815260200182805461213890612bc4565b80156121855780601f1061215a57610100808354040283529160200191612185565b820191906000526020600020905b81548152906001019060200180831161216857829003601f168201915b50505050600483015460058401546006850154600786015460089096015494956001600160a01b0393841695928416945092811692600160a01b90910460ff16918a565b6001600160a01b03811660009081526005602090815260409182902080548351818402810184019094528084526060939283018282801561120357602002820191906000526020600020908154815260200190600101908083116111ef5750505050509050919050565b828054828255906000526020600020908101928215612279579160200282015b8281111561227957825182906122699082612c8f565b5091602001919060010190612253565b5061228592915061230f565b5090565b6040518061016001604052806000815260200160608152602001606081526020016060815260200160006001600160a01b0316815260200160006001600160a01b0316815260200160006001600160a01b03168152602001600060058111156122f4576122f4612981565b81526020016000815260200160008152602001606081525090565b80821115612285576000612323828261232c565b5060010161230f565b50805461233890612bc4565b6000825580601f10612348575050565b601f016020900490600052602060002090810190610fa091905b808211156122855760008155600101612362565b60006020828403121561238857600080fd5b5035919050565b60005b838110156123aa578181015183820152602001612392565b50506000910152565b600081518084526123cb81602086016020860161238f565b601f01601f19169290920160200192915050565b60006020808301818452808551808352604092508286019150828160051b87010184880160005b8381101561248557603f19898403018552815160c081518552888201518986015287820151888601526060808301518282880152612446838801826123b3565b925050506080808301518683038288015261246183826123b3565b60a09485015115159790940196909652505094870194925090860190600101612406565b509098975050505050505050565b634e487b7160e01b600052604160045260246000fd5b604051601f8201601f1916810167ffffffffffffffff811182821017156124d2576124d2612493565b604052919050565b600067ffffffffffffffff8211156124f4576124f4612493565b50601f01601f191660200190565b600082601f83011261251357600080fd5b8135612526612521826124da565b6124a9565b81815284602083860101111561253b57600080fd5b816020850160208301376000918101602001919091529392505050565b600080600080600060a0868803121561257057600080fd5b85359450602086013567ffffffffffffffff8082111561258f57600080fd5b61259b89838a01612502565b955060408801359150808211156125b157600080fd5b6125bd89838a01612502565b945060608801359150808211156125d357600080fd5b506125e088828901612502565b925050608086013580151581146125f657600080fd5b809150509295509295909350565b6001600160a01b0381168114610fa057600080fd5b6000806040838503121561262c57600080fd5b823561263781612604565b946020939093013593505050565b6000806000806080858703121561265b57600080fd5b8435935060208501359250604085013567ffffffffffffffff8082111561268157600080fd5b61268d88838901612502565b935060608701359150808211156126a357600080fd5b506126b087828801612502565b91505092959194509250565b600080604083850312156126cf57600080fd5b50508035926020909101359150565b86815285602082015284604082015260c06060820152600061270360c08301866123b3565b828103608084015261271581866123b3565b91505082151560a0830152979650505050505050565b60006020828403121561273d57600080fd5b813561274881612604565b9392505050565b60c08152600061276260c08301896123b3565b828103602084015261277481896123b3565b9050828103604084015261278881886123b3565b6001600160a01b0396909616606084015250506080810192909252151560a0909101529392505050565b6020808252825182820181905260009190848201906040850190845b818110156127ea578351835292840192918401916001016127ce565b50909695505050505050565b6000806040838503121561280957600080fd5b8235915060208301356006811061281f57600080fd5b809150509250929050565b6000806000806080858703121561284057600080fd5b843567ffffffffffffffff8082111561285857600080fd5b61286488838901612502565b9550602087013591508082111561287a57600080fd5b61288688838901612502565b9450604087013591508082111561289c57600080fd5b506128a987828801612502565b92505060608501356128ba81612604565b939692955090935050565b60006020808301818452808551808352604092508286019150828160051b87010184880160005b8381101561248557603f19898403018552815160c08151818652612912828701826123b3565b915050888201518582038a87015261292a82826123b3565b915050878201518582038987015261294282826123b3565b6060848101516001600160a01b0316908801526080808501519088015260a09384015115159390960192909252505093860193908601906001016128ec565b634e487b7160e01b600052602160045260246000fd5b600681106129b557634e487b7160e01b600052602160045260246000fd5b9052565b600081518084526020808501808196508360051b8101915082860160005b85811015612a015782840389526129ef8483516123b3565b988501989350908401906001016129d7565b5091979650505050505050565b602081528151602082015260006020830151610160806040850152612a376101808501836123b3565b91506040850151601f1980868503016060870152612a5584836123b3565b93506060870151915080868503016080870152612a7284836123b3565b935060808701519150612a9060a08701836001600160a01b03169052565b60a08701516001600160a01b03811660c0880152915060c08701516001600160a01b03811660e0880152915060e08701519150610100612ad281880184612997565b8701516101208781019190915287015161014080880191909152870151868503909101838701529050612b0583826129b9565b9695505050505050565b60006101408c8352806020840152612b298184018d6123b3565b90508281036040840152612b3d818c6123b3565b90508281036060840152612b51818b6123b3565b6001600160a01b038a8116608086015289811660a0860152881660c08501529150612b81905060e0830186612997565b610100820193909352610120015298975050505050505050565b6020808252600f908201526e125b9d985b1a590818d85cd9481251608a1b604082015260600190565b600181811c90821680612bd857607f821691505b602082108103612bf857634e487b7160e01b600052602260045260246000fd5b50919050565b60208082526022908201527f4e6f7420617574686f72697a656420746f206163636573732074686973206361604082015261736560f01b606082015260800190565b601f821115612c8a57600081815260208120601f850160051c81016020861015612c675750805b601f850160051c820191505b81811015612c8657828155600101612c73565b5050505b505050565b815167ffffffffffffffff811115612ca957612ca9612493565b612cbd81612cb78454612bc4565b84612c40565b602080601f831160018114612cf25760008415612cda5750858301515b600019600386901b1c1916600185901b178555612c86565b600085815260208120601f198616915b82811015612d2157888601518255948401946001909101908401612d02565b5085821015612d3f5787850151600019600388901b60f8161c191681555b5050505050600190811b01905550565b604081526000612d6260408301856123b3565b8281036020840152612d7481856123b3565b95945050505050565b600060208284031215612d8f57600080fd5b815167ffffffffffffffff811115612da657600080fd5b8201601f81018413612db757600080fd5b8051612dc5612521826124da565b818152856020838501011115612dda57600080fd5b612d7482602083016020860161238f565b60208082526023908201527f4f6e6c79206a75646765732063616e20706572666f726d20746869732061637460408201526234b7b760e91b606082015260800190565b600060018201612e4e57634e487b7160e01b600052601160045260246000fd5b5060010190565b634e487b7160e01b600052603260045260246000fd5b60208101612e798284612997565b92915050565b60006020808385031215612e9257600080fd5b825167ffffffffffffffff80821115612eaa57600080fd5b818501915085601f830112612ebe57600080fd5b815181811115612ed057612ed0612493565b8060051b9150612ee18483016124a9565b8181529183018401918481019088841115612efb57600080fd5b938501935b83851015612f255784519250612f1583612604565b8282529385019390850190612f00565b98975050505050505050565b600082612f4e57634e487b7160e01b600052601260045260246000fd5b50069056fea2646970667358221220bc844086ab89a8a6c6c317e31199373b742f7a7f68ccad3b810ad395d33ed46164736f6c63430008140033",
  "linkReferences": {},
  "deployedLinkReferences": {}
}