{
  "_format": "hh-sol-artifact-1",
  "contractName": "IPFSManager",
  "sourceName": "backend/contracts/IPFSManager.sol",
  "abi": [
    {
      "inputs": [
        {
          "internalType": "address",
          "name": "_userRegistryAddress",
          "type": "address"
        }
      ],
      "stateMutability": "nonpayable",
      "type": "constructor"
    },
    {
      "anonymous": false,
      "inputs": [
        {
          "indexed": true,
          "internalType": "uint256",
          "name": "documentId",
          "type": "uint256"
        },
        {
          "indexed": true,
          "internalType": "uint256",
          "name": "caseId",
          "type": "uint256"
        }
      ],
      "name": "DocumentAssociatedWithCase",
      "type": "event"
    },
    {
      "anonymous": false,
      "inputs": [
        {
          "indexed": true,
          "internalType": "uint256",
          "name": "documentId",
          "type": "uint256"
        },
        {
          "indexed": false,
          "internalType": "string",
          "name": "name",
          "type": "string"
        },
        {
          "indexed": false,
          "internalType": "string",
          "name": "contentCID",
          "type": "string"
        },
        {
          "indexed": true,
          "internalType": "address",
          "name": "owner",
          "type": "address"
        },
        {
          "indexed": true,
          "internalType": "uint256",
          "name": "caseId",
          "type": "uint256"
        }
      ],
      "name": "DocumentStored",
      "type": "event"
    },
    {
      "anonymous": false,
      "inputs": [
        {
          "indexed": true,
          "internalType": "uint256",
          "name": "documentId",
          "type": "uint256"
        },
        {
          "indexed": false,
          "internalType": "string",
          "name": "contentCID",
          "type": "string"
        }
      ],
      "name": "DocumentUpdated",
      "type": "event"
    },
    {
      "inputs": [
        {
          "internalType": "uint256",
          "name": "_documentId",
          "type": "uint256"
        },
        {
          "internalType": "uint256",
          "name": "_caseId",
          "type": "uint256"
        }
      ],
      "name": "associateWithCase",
      "outputs": [],
      "stateMutability": "nonpayable",
      "type": "function"
    },
    {
      "inputs": [
        {
          "internalType": "uint256",
          "name": "",
          "type": "uint256"
        },
        {
          "internalType": "uint256",
          "name": "",
          "type": "uint256"
        }
      ],
      "name": "caseDocuments",
      "outputs": [
        {
          "internalType": "uint256",
          "name": "",
          "type": "uint256"
        }
      ],
      "stateMutability": "view",
      "type": "function"
    },
    {
      "inputs": [],
      "name": "documentCounter",
      "outputs": [
        {
          "internalType": "uint256",
          "name": "",
          "type": "uint256"
        }
      ],
      "stateMutability": "view",
      "type": "function"
    },
    {
      "inputs": [
        {
          "internalType": "uint256",
          "name": "",
          "type": "uint256"
        }
      ],
      "name": "documents",
      "outputs": [
        {
          "internalType": "uint256",
          "name": "documentId",
          "type": "uint256"
        },
        {
          "internalType": "string",
          "name": "name",
          "type": "string"
        },
        {
          "internalType": "string",
          "name": "description",
          "type": "string"
        },
        {
          "internalType": "string",
          "name": "contentCID",
          "type": "string"
        },
        {
          "internalType": "string",
          "name": "documentType",
          "type": "string"
        },
        {
          "internalType": "address",
          "name": "owner",
          "type": "address"
        },
        {
          "internalType": "uint256",
          "name": "uploadDate",
          "type": "uint256"
        },
        {
          "internalType": "uint256",
          "name": "caseId",
          "type": "uint256"
        },
        {
          "internalType": "bool",
          "name": "isPublic",
          "type": "bool"
        }
      ],
      "stateMutability": "view",
      "type": "function"
    },
    {
      "inputs": [
        {
          "internalType": "uint256",
          "name": "_caseId",
          "type": "uint256"
        }
      ],
      "name": "getCaseDocumentCount",
      "outputs": [
        {
          "internalType": "uint256",
          "name": "",
          "type": "uint256"
        }
      ],
      "stateMutability": "view",
      "type": "function"
    },
    {
      "inputs": [
        {
          "internalType": "uint256",
          "name": "_caseId",
          "type": "uint256"
        }
      ],
      "name": "getCaseDocuments",
      "outputs": [
        {
          "internalType": "uint256[]",
          "name": "",
          "type": "uint256[]"
        }
      ],
      "stateMutability": "view",
      "type": "function"
    },
    {
      "inputs": [
        {
          "internalType": "uint256",
          "name": "_documentId",
          "type": "uint256"
        }
      ],
      "name": "getDocument",
      "outputs": [
        {
          "components": [
            {
              "internalType": "uint256",
              "name": "documentId",
              "type": "uint256"
            },
            {
              "internalType": "string",
              "name": "name",
              "type": "string"
            },
            {
              "internalType": "string",
              "name": "description",
              "type": "string"
            },
            {
              "internalType": "string",
              "name": "contentCID",
              "type": "string"
            },
            {
              "internalType": "string",
              "name": "documentType",
              "type": "string"
            },
            {
              "internalType": "address",
              "name": "owner",
              "type": "address"
            },
            {
              "internalType": "uint256",
              "name": "uploadDate",
              "type": "uint256"
            },
            {
              "internalType": "uint256",
              "name": "caseId",
              "type": "uint256"
            },
            {
              "internalType": "bool",
              "name": "isPublic",
              "type": "bool"
            }
          ],
          "internalType": "struct IPFSManager.Document",
          "name": "",
          "type": "tuple"
        }
      ],
      "stateMutability": "view",
      "type": "function"
    },
    {
      "inputs": [
        {
          "internalType": "address",
          "name": "_user",
          "type": "address"
        }
      ],
      "name": "getUserDocumentCount",
      "outputs": [
        {
          "internalType": "uint256",
          "name": "",
          "type": "uint256"
        }
      ],
      "stateMutability": "view",
      "type": "function"
    },
    {
      "inputs": [
        {
          "internalType": "address",
          "name": "_user",
          "type": "address"
        }
      ],
      "name": "getUserDocuments",
      "outputs": [
        {
          "internalType": "uint256[]",
          "name": "",
          "type": "uint256[]"
        }
      ],
      "stateMutability": "view",
      "type": "function"
    },
    {
      "inputs": [
        {
          "internalType": "string",
          "name": "_name",
          "type": "string"
        },
        {
          "internalType": "string",
          "name": "_description",
          "type": "string"
        },
        {
          "internalType": "string",
          "name": "_contentCID",
          "type": "string"
        },
        {
          "internalType": "string",
          "name": "_documentType",
          "type": "string"
        },
        {
          "internalType": "uint256",
          "name": "_caseId",
          "type": "uint256"
        },
        {
          "internalType": "bool",
          "name": "_isPublic",
          "type": "bool"
        }
      ],
      "name": "storeDocument",
      "outputs": [
        {
          "internalType": "uint256",
          "name": "",
          "type": "uint256"
        }
      ],
      "stateMutability": "nonpayable",
      "type": "function"
    },
    {
      "inputs": [
        {
          "internalType": "uint256",
          "name": "_documentId",
          "type": "uint256"
        },
        {
          "internalType": "string",
          "name": "_newContentCID",
          "type": "string"
        }
      ],
      "name": "updateDocumentCID",
      "outputs": [],
      "stateMutability": "nonpayable",
      "type": "function"
    },
    {
      "inputs": [
        {
          "internalType": "address",
          "name": "",
          "type": "address"
        },
        {
          "internalType": "uint256",
          "name": "",
          "type": "uint256"
        }
      ],
      "name": "userDocuments",
      "outputs": [
        {
          "internalType": "uint256",
          "name": "",
          "type": "uint256"
        }
      ],
      "stateMutability": "view",
      "type": "function"
    },
    {
      "inputs": [],
      "name": "userRegistry",
      "outputs": [
        {
          "internalType": "contract UserRegistry",
          "name": "",
          "type": "address"
        }
      ],
      "stateMutability": "view",
      "type": "function"
    }
  ],
  "bytecode": "0x608060405234801561001057600080fd5b506040516116b03803806116b083398101604081905261002f91610058565b600480546001600160a01b0319166001600160a01b039290921691909117905560008055610088565b60006020828403121561006a57600080fd5b81516001600160a01b038116811461008157600080fd5b9392505050565b611619806100976000396000f3fe608060405234801561001057600080fd5b50600436106100cf5760003560e01c806358f313bb1161008c57806395e4856f1161006657806395e4856f146101c9578063ab5c3b83146101f2578063c2ed2b0514610205578063df1afdbc1461022d57600080fd5b806358f313bb146101755780635c7460d61461017e57806390a4b162146101a957600080fd5b806304357039146100d457806325a708be146100e95780633ef52d5b146100fc5780633f9b250a1461012f5780634d26f15c1461014f578063577a1b9214610162575b600080fd5b6100e76100e2366004611032565b610240565b005b6100e76100f7366004611079565b610398565b61011c61010a36600461109b565b60009081526003602052604090205490565b6040519081526020015b60405180910390f35b61014261013d36600461109b565b610552565b60405161012691906110fa565b61011c61015d366004611079565b6108fa565b61011c6101703660046111eb565b61092b565b61011c60005481565b600454610191906001600160a01b031681565b6040516001600160a01b039091168152602001610126565b6101bc6101b7366004611215565b610947565b6040516101269190611237565b61011c6101d7366004611215565b6001600160a01b031660009081526002602052604090205490565b6101bc61020036600461109b565b6109b3565b61021861021336600461109b565b610a13565b6040516101269998979695949392919061127b565b61011c61023b366004611322565b610c87565b60008211801561025257506000548211155b6102775760405162461bcd60e51b815260040161026e906113e8565b60405180910390fd5b6000828152600160205260409020600501546001600160a01b031633146102ef5760405162461bcd60e51b815260206004820152602660248201527f4f6e6c7920746865206f776e65722063616e207570646174652074686520646f60448201526518dd5b595b9d60d21b606482015260840161026e565b60008151116103405760405162461bcd60e51b815260206004820152601b60248201527f4e657720636f6e74656e74204349442069732072657175697265640000000000604482015260640161026e565b600082815260016020526040902060030161035b828261149e565b50817f20297096221fa45cf89de8bdcc534356afd5568db828d81dc1612863edcc115d8260405161038c919061155e565b60405180910390a25050565b6000821180156103aa57506000548211155b6103c65760405162461bcd60e51b815260040161026e906113e8565b6000828152600160205260409020600501546001600160a01b031633146104415760405162461bcd60e51b815260206004820152602960248201527f4f6e6c7920746865206f776e65722063616e206173736f63696174652074686560448201526808191bd8dd5b595b9d60ba1b606482015260840161026e565b600081116104835760405162461bcd60e51b815260206004820152600f60248201526e125b9d985b1a590818d85cd9481251608a1b604482015260640161026e565b600082815260016020526040902060070154156104f25760405162461bcd60e51b815260206004820152602760248201527f446f63756d656e7420616c7265616479206173736f63696174656420776974686044820152662061206361736560c81b606482015260840161026e565b60008281526001602081815260408084206007018590558484526003825280842080549384018155845290832090910184905551829184917f497159a8cfafe5e4609a925ce05ba25bd035e06f8752ac24bd4e20b9bbf95fea9190a35050565b6105ac604051806101200160405280600081526020016060815260200160608152602001606081526020016060815260200160006001600160a01b0316815260200160008152602001600081526020016000151581525090565b6000821180156105be57506000548211155b6105da5760405162461bcd60e51b815260040161026e906113e8565b60008281526001602081815260408084208151610120810190925280548252928301805491939284019161060d90611415565b80601f016020809104026020016040519081016040528092919081815260200182805461063990611415565b80156106865780601f1061065b57610100808354040283529160200191610686565b820191906000526020600020905b81548152906001019060200180831161066957829003601f168201915b5050505050815260200160028201805461069f90611415565b80601f01602080910402602001604051908101604052809291908181526020018280546106cb90611415565b80156107185780601f106106ed57610100808354040283529160200191610718565b820191906000526020600020905b8154815290600101906020018083116106fb57829003601f168201915b5050505050815260200160038201805461073190611415565b80601f016020809104026020016040519081016040528092919081815260200182805461075d90611415565b80156107aa5780601f1061077f576101008083540402835291602001916107aa565b820191906000526020600020905b81548152906001019060200180831161078d57829003601f168201915b505050505081526020016004820180546107c390611415565b80601f01602080910402602001604051908101604052809291908181526020018280546107ef90611415565b801561083c5780601f106108115761010080835404028352916020019161083c565b820191906000526020600020905b81548152906001019060200180831161081f57829003601f168201915b505050918352505060058201546001600160a01b03166020820152600682015460408201526007820154606082015260089091015460ff1615156080909101526101008101519091508061089c575060a08101516001600160a01b031633145b6108f45760405162461bcd60e51b8152602060048201526024808201527f4e6f7420617574686f72697a656420746f2076696577207468697320646f63756044820152631b595b9d60e21b606482015260840161026e565b92915050565b6003602052816000526040600020818154811061091657600080fd5b90600052602060002001600091509150505481565b6002602052816000526040600020818154811061091657600080fd5b6001600160a01b0381166000908152600260209081526040918290208054835181840281018401909452808452606093928301828280156109a757602002820191906000526020600020905b815481526020019060010190808311610993575b50505050509050919050565b6000818152600360209081526040918290208054835181840281018401909452808452606093928301828280156109a757602002820191906000526020600020908154815260200190600101908083116109935750505050509050919050565b600160208190526000918252604090912080549181018054610a3490611415565b80601f0160208091040260200160405190810160405280929190818152602001828054610a6090611415565b8015610aad5780601f10610a8257610100808354040283529160200191610aad565b820191906000526020600020905b815481529060010190602001808311610a9057829003601f168201915b505050505090806002018054610ac290611415565b80601f0160208091040260200160405190810160405280929190818152602001828054610aee90611415565b8015610b3b5780601f10610b1057610100808354040283529160200191610b3b565b820191906000526020600020905b815481529060010190602001808311610b1e57829003601f168201915b505050505090806003018054610b5090611415565b80601f0160208091040260200160405190810160405280929190818152602001828054610b7c90611415565b8015610bc95780601f10610b9e57610100808354040283529160200191610bc9565b820191906000526020600020905b815481529060010190602001808311610bac57829003601f168201915b505050505090806004018054610bde90611415565b80601f0160208091040260200160405190810160405280929190818152602001828054610c0a90611415565b8015610c575780601f10610c2c57610100808354040283529160200191610c57565b820191906000526020600020905b815481529060010190602001808311610c3a57829003601f168201915b5050505060058301546006840154600785015460089095015493946001600160a01b039092169390925060ff1689565b60048054604051630b1fba9160e11b815233928101929092526000916001600160a01b039091169063163f752290602401602060405180830381865afa158015610cd5573d6000803e3d6000fd5b505050506040513d601f19601f82011682018060405250810190610cf99190611571565b610d3b5760405162461bcd60e51b8152602060048201526013602482015272155cd95c881b9bdd081c9959da5cdd195c9959606a1b604482015260640161026e565b6000855111610d8c5760405162461bcd60e51b815260206004820152601760248201527f436f6e74656e7420434944206973207265717569726564000000000000000000604482015260640161026e565b6000875111610dd05760405162461bcd60e51b815260206004820152601060248201526f13985b59481a5cc81c995c5d5a5c995960821b604482015260640161026e565b600080549080610ddf8361158e565b909155505060408051610120810182526000805480835260208084018c81528486018c9052606085018b9052608085018a90523360a08601524260c086015260e08501899052871515610100860152918352600190819052939091208251815590519192909190820190610e53908261149e565b5060408201516002820190610e68908261149e565b5060608201516003820190610e7d908261149e565b5060808201516004820190610e92908261149e565b5060a08201516005820180546001600160a01b0319166001600160a01b0390921691909117905560c0820151600682015560e08201516007820155610100909101516008909101805460ff191691151591909117905533600090815260026020908152604082208254815460018101835591845291909220909101558215610f3a57600083815260036020908152604082208254815460018101835591845291909220909101555b82336001600160a01b03166000547ff649d7d9d2f86602b811728f937e408ca2dc52f7ac5bf46acaefbef486f1415d8a89604051610f799291906115b5565b60405180910390a4506000549695505050505050565b634e487b7160e01b600052604160045260246000fd5b600082601f830112610fb657600080fd5b813567ffffffffffffffff80821115610fd157610fd1610f8f565b604051601f8301601f19908116603f01168101908282118183101715610ff957610ff9610f8f565b8160405283815286602085880101111561101257600080fd5b836020870160208301376000602085830101528094505050505092915050565b6000806040838503121561104557600080fd5b82359150602083013567ffffffffffffffff81111561106357600080fd5b61106f85828601610fa5565b9150509250929050565b6000806040838503121561108c57600080fd5b50508035926020909101359150565b6000602082840312156110ad57600080fd5b5035919050565b6000815180845260005b818110156110da576020818501810151868301820152016110be565b506000602082860101526020601f19601f83011685010191505092915050565b6020815281516020820152600060208301516101208060408501526111236101408501836110b4565b91506040850151601f198086850301606087015261114184836110b4565b9350606087015191508086850301608087015261115e84836110b4565b935060808701519150808685030160a08701525061117c83826110b4565b92505060a085015161119960c08601826001600160a01b03169052565b5060c085015160e085015260e08501516101008181870152808701519150506111c58286018215159052565b5090949350505050565b80356001600160a01b03811681146111e657600080fd5b919050565b600080604083850312156111fe57600080fd5b611207836111cf565b946020939093013593505050565b60006020828403121561122757600080fd5b611230826111cf565b9392505050565b6020808252825182820181905260009190848201906040850190845b8181101561126f57835183529284019291840191600101611253565b50909695505050505050565b60006101208b83528060208401526112958184018c6110b4565b905082810360408401526112a9818b6110b4565b905082810360608401526112bd818a6110b4565b905082810360808401526112d181896110b4565b6001600160a01b039790971660a0840152505060c081019390935260e083019190915215156101009091015295945050505050565b801515811461131457600080fd5b50565b80356111e681611306565b60008060008060008060c0878903121561133b57600080fd5b863567ffffffffffffffff8082111561135357600080fd5b61135f8a838b01610fa5565b9750602089013591508082111561137557600080fd5b6113818a838b01610fa5565b9650604089013591508082111561139757600080fd5b6113a38a838b01610fa5565b955060608901359150808211156113b957600080fd5b506113c689828a01610fa5565b935050608087013591506113dc60a08801611317565b90509295509295509295565b602080825260139082015272125b9d985b1a5908191bd8dd5b595b9d081251606a1b604082015260600190565b600181811c9082168061142957607f821691505b60208210810361144957634e487b7160e01b600052602260045260246000fd5b50919050565b601f82111561149957600081815260208120601f850160051c810160208610156114765750805b601f850160051c820191505b8181101561149557828155600101611482565b5050505b505050565b815167ffffffffffffffff8111156114b8576114b8610f8f565b6114cc816114c68454611415565b8461144f565b602080601f83116001811461150157600084156114e95750858301515b600019600386901b1c1916600185901b178555611495565b600085815260208120601f198616915b8281101561153057888601518255948401946001909101908401611511565b508582101561154e5787850151600019600388901b60f8161c191681555b5050505050600190811b01905550565b60208152600061123060208301846110b4565b60006020828403121561158357600080fd5b815161123081611306565b6000600182016115ae57634e487b7160e01b600052601160045260246000fd5b5060010190565b6040815260006115c860408301856110b4565b82810360208401526115da81856110b4565b9594505050505056fea264697066735822122040b8b148b71d264a2bed9eebe7406ec80d02a6dd27b2eb6b261b30da7123808c64736f6c63430008140033",
  "linkReferences": {},
  "deployedLinkReferences": {}
}