{
  "_format": "hh-sol-artifact-1",
  "contractName": "UserRegistry",
  "sourceName": "backend/contracts/UserRegistry.sol",
  "abi": [
    {
      "anonymous": false,
      "inputs": [
        {
          "indexed": true,
          "internalType": "address",
          "name": "userAddress",
          "type": "address"
        },
        {
          "indexed": false,
          "internalType": "string",
          "name": "name",
          "type": "string"
        },
        {
          "indexed": false,
          "internalType": "string",
          "name": "email",
          "type": "string"
        },
        {
          "indexed": false,
          "internalType": "string",
          "name": "role",
          "type": "string"
        },
        {
          "indexed": false,
          "internalType": "string",
          "name": "id",
          "type": "string"
        }
      ],
      "name": "UserRegistered",
      "type": "event"
    },
    {
      "anonymous": false,
      "inputs": [
        {
          "indexed": true,
          "internalType": "address",
          "name": "userAddress",
          "type": "address"
        },
        {
          "indexed": false,
          "internalType": "bool",
          "name": "isActive",
          "type": "bool"
        }
      ],
      "name": "UserStatusChanged",
      "type": "event"
    },
    {
      "inputs": [
        {
          "internalType": "uint256",
          "name": "",
          "type": "uint256"
        }
      ],
      "name": "allClients",
      "outputs": [
        {
          "internalType": "address",
          "name": "",
          "type": "address"
        }
      ],
      "stateMutability": "view",
      "type": "function"
    },
    {
      "inputs": [
        {
          "internalType": "uint256",
          "name": "",
          "type": "uint256"
        }
      ],
      "name": "allJudges",
      "outputs": [
        {
          "internalType": "address",
          "name": "",
          "type": "address"
        }
      ],
      "stateMutability": "view",
      "type": "function"
    },
    {
      "inputs": [
        {
          "internalType": "uint256",
          "name": "",
          "type": "uint256"
        }
      ],
      "name": "allLawyers",
      "outputs": [
        {
          "internalType": "address",
          "name": "",
          "type": "address"
        }
      ],
      "stateMutability": "view",
      "type": "function"
    },
    {
      "inputs": [
        {
          "internalType": "string",
          "name": "",
          "type": "string"
        }
      ],
      "name": "barIdToAddress",
      "outputs": [
        {
          "internalType": "address",
          "name": "",
          "type": "address"
        }
      ],
      "stateMutability": "view",
      "type": "function"
    },
    {
      "inputs": [
        {
          "internalType": "string",
          "name": "",
          "type": "string"
        }
      ],
      "name": "emailToAddress",
      "outputs": [
        {
          "internalType": "address",
          "name": "",
          "type": "address"
        }
      ],
      "stateMutability": "view",
      "type": "function"
    },
    {
      "inputs": [],
      "name": "getAllClients",
      "outputs": [
        {
          "internalType": "address[]",
          "name": "",
          "type": "address[]"
        }
      ],
      "stateMutability": "view",
      "type": "function"
    },
    {
      "inputs": [],
      "name": "getAllJudges",
      "outputs": [
        {
          "internalType": "address[]",
          "name": "",
          "type": "address[]"
        }
      ],
      "stateMutability": "view",
      "type": "function"
    },
    {
      "inputs": [],
      "name": "getAllLawyers",
      "outputs": [
        {
          "internalType": "address[]",
          "name": "",
          "type": "address[]"
        }
      ],
      "stateMutability": "view",
      "type": "function"
    },
    {
      "inputs": [
        {
          "internalType": "string",
          "name": "email",
          "type": "string"
        }
      ],
      "name": "getUserAddressByEmail",
      "outputs": [
        {
          "internalType": "address",
          "name": "",
          "type": "address"
        }
      ],
      "stateMutability": "view",
      "type": "function"
    },
    {
      "inputs": [
        {
          "internalType": "address",
          "name": "userAddress",
          "type": "address"
        }
      ],
      "name": "getUserDetails",
      "outputs": [
        {
          "components": [
            {
              "internalType": "string",
              "name": "name",
              "type": "string"
            },
            {
              "internalType": "string",
              "name": "email",
              "type": "string"
            },
            {
              "internalType": "string",
              "name": "role",
              "type": "string"
            },
            {
              "internalType": "string",
              "name": "id",
              "type": "string"
            },
            {
              "internalType": "bool",
              "name": "isActive",
              "type": "bool"
            },
            {
              "internalType": "uint256",
              "name": "registrationDate",
              "type": "uint256"
            }
          ],
          "internalType": "struct UserRegistry.User",
          "name": "",
          "type": "tuple"
        }
      ],
      "stateMutability": "view",
      "type": "function"
    },
    {
      "inputs": [
        {
          "internalType": "address",
          "name": "userAddress",
          "type": "address"
        }
      ],
      "name": "getUserRole",
      "outputs": [
        {
          "internalType": "string",
          "name": "",
          "type": "string"
        }
      ],
      "stateMutability": "view",
      "type": "function"
    },
    {
      "inputs": [
        {
          "internalType": "address",
          "name": "userAddress",
          "type": "address"
        }
      ],
      "name": "isUserRegistered",
      "outputs": [
        {
          "internalType": "bool",
          "name": "",
          "type": "bool"
        }
      ],
      "stateMutability": "view",
      "type": "function"
    },
    {
      "inputs": [
        {
          "internalType": "string",
          "name": "barId",
          "type": "string"
        }
      ],
      "name": "isValidBarId",
      "outputs": [
        {
          "internalType": "bool",
          "name": "",
          "type": "bool"
        }
      ],
      "stateMutability": "view",
      "type": "function"
    },
    {
      "inputs": [
        {
          "internalType": "string",
          "name": "judicialId",
          "type": "string"
        }
      ],
      "name": "isValidJudicialId",
      "outputs": [
        {
          "internalType": "bool",
          "name": "",
          "type": "bool"
        }
      ],
      "stateMutability": "view",
      "type": "function"
    },
    {
      "inputs": [
        {
          "internalType": "string",
          "name": "",
          "type": "string"
        }
      ],
      "name": "judicialIdToAddress",
      "outputs": [
        {
          "internalType": "address",
          "name": "",
          "type": "address"
        }
      ],
      "stateMutability": "view",
      "type": "function"
    },
    {
      "inputs": [
        {
          "internalType": "string",
          "name": "name",
          "type": "string"
        },
        {
          "internalType": "string",
          "name": "email",
          "type": "string"
        }
      ],
      "name": "registerAsClient",
      "outputs": [],
      "stateMutability": "nonpayable",
      "type": "function"
    },
    {
      "inputs": [
        {
          "internalType": "string",
          "name": "name",
          "type": "string"
        },
        {
          "internalType": "string",
          "name": "email",
          "type": "string"
        },
        {
          "internalType": "string",
          "name": "judicialId",
          "type": "string"
        }
      ],
      "name": "registerAsJudge",
      "outputs": [],
      "stateMutability": "nonpayable",
      "type": "function"
    },
    {
      "inputs": [
        {
          "internalType": "string",
          "name": "name",
          "type": "string"
        },
        {
          "internalType": "string",
          "name": "email",
          "type": "string"
        },
        {
          "internalType": "string",
          "name": "barId",
          "type": "string"
        }
      ],
      "name": "registerAsLawyer",
      "outputs": [],
      "stateMutability": "nonpayable",
      "type": "function"
    },
    {
      "inputs": [
        {
          "internalType": "address",
          "name": "",
          "type": "address"
        }
      ],
      "name": "users",
      "outputs": [
        {
          "internalType": "string",
          "name": "name",
          "type": "string"
        },
        {
          "internalType": "string",
          "name": "email",
          "type": "string"
        },
        {
          "internalType": "string",
          "name": "role",
          "type": "string"
        },
        {
          "internalType": "string",
          "name": "id",
          "type": "string"
        },
        {
          "internalType": "bool",
          "name": "isActive",
          "type": "bool"
        },
        {
          "internalType": "uint256",
          "name": "registrationDate",
          "type": "uint256"
        }
      ],
      "stateMutability": "view",
      "type": "function"
    }
  ],
  "bytecode": "0x608060405234801561001057600080fd5b50611bfa806100206000396000f3fe608060405234801561001057600080fd5b50600436106101215760003560e01c80639249d865116100ad578063cc3d967b11610071578063cc3d967b146102d2578063e4d7a3d4146102f2578063ea78dcbf146102fa578063f39771181461032e578063f63725851461034157600080fd5b80639249d8651461026a578063a406f79f1461027f578063a87430ba14610292578063c0840f56146102b7578063c527d4a7146102bf57600080fd5b806364775995116100f457806364775995146101e857806367ecb10f1461021c57806371fdde6c1461022f57806378665ca91461024257806384e33f8b1461025757600080fd5b8063163f752214610126578063278208511461016957806334f00bfd1461018957806357469b05146101d5575b600080fd5b6101546101343660046114c1565b6001600160a01b0316600090815260208190526040902060050154151590565b60405190151581526020015b60405180910390f35b61017c6101773660046114c1565b610354565b6040516101609190611541565b6101bd6101973660046115f7565b80516020818301810180516002825292820191909301209152546001600160a01b031681565b6040516001600160a01b039091168152602001610160565b6101546101e33660046115f7565b61046c565b6101bd6101f63660046115f7565b80516020818301810180516001825292820191909301209152546001600160a01b031681565b6101bd61022a366004611634565b6104a9565b6101bd61023d366004611634565b6104d3565b61025561025036600461164d565b6104e3565b005b6101bd6102653660046115f7565b61083b565b61027261086c565b60405161016091906116d5565b6101bd61028d366004611634565b6108ce565b6102a56102a03660046114c1565b6108de565b60405161016096959493929190611722565b610272610b36565b6101546102cd3660046115f7565b610b96565b6102e56102e03660046114c1565b610bb2565b6040516101609190611785565b610272610ed5565b6101bd6103083660046115f7565b80516020818301810180516003825292820191909301209152546001600160a01b031681565b61025561033c36600461164d565b610f35565b61025561034f36600461181d565b611276565b606061037a826001600160a01b0316600090815260208190526040902060050154151590565b6103c15760405162461bcd60e51b8152602060048201526013602482015272155cd95c881b9bdd081c9959da5cdd195c9959606a1b60448201526064015b60405180910390fd5b6001600160a01b038216600090815260208190526040902060020180546103e790611881565b80601f016020809104026020016040519081016040528092919081815260200182805461041390611881565b80156104605780601f1061043557610100808354040283529160200191610460565b820191906000526020600020905b81548152906001019060200180831161044357829003601f168201915b50505050509050919050565b6000806001600160a01b031660028360405161048891906118bb565b908152604051908190036020019020546001600160a01b0316141592915050565b600581815481106104b957600080fd5b6000918252602090912001546001600160a01b0316905081565b600681815481106104b957600080fd5b60008151116105345760405162461bcd60e51b815260206004820152601760248201527f4a7564696369616c20494420697320726571756972656400000000000000000060448201526064016103b8565b60008251116105555760405162461bcd60e51b81526004016103b8906118d7565b60008351116105765760405162461bcd60e51b81526004016103b890611902565b33600090815260208190526040902060050154156105a65760405162461bcd60e51b81526004016103b89061192c565b60006001600160a01b03166002826040516105c191906118bb565b908152604051908190036020019020546001600160a01b0316146106275760405162461bcd60e51b815260206004820152601e60248201527f4a7564696369616c20494420616c72656164792072656769737465726564000060448201526064016103b8565b60006001600160a01b031660038360405161064291906118bb565b908152604051908190036020019020546001600160a01b0316146106785760405162461bcd60e51b81526004016103b890611963565b6040805160c08101825284815260208082018590528251808401845260058152646a7564676560d81b818301528284015260608201849052600160808301524260a08301523360009081529081905291909120815181906106d990826119e9565b50602082015160018201906106ee90826119e9565b506040820151600282019061070390826119e9565b506060820151600382019061071890826119e9565b50608082015160048201805460ff191691151591909117905560a09091015160059091015560405133906002906107509084906118bb565b908152602001604051809103902060006101000a8154816001600160a01b0302191690836001600160a01b031602179055503360038360405161079391906118bb565b90815260405190819003602001812080546001600160a01b03939093166001600160a01b0319938416179055600580546001810182556000919091527f036b6384b5eca791c62761152d0c79bb0604c104a5fb6f4eb0703f3154bb3db0018054909216339081179092557fc6a389e0d7f85976a7f15ae09ba493cd9cd268e1da864fc1c540b3517da90fdd9061082e90869086908690611aa9565b60405180910390a2505050565b600060038260405161084d91906118bb565b908152604051908190036020019020546001600160a01b031692915050565b606060048054806020026020016040519081016040528092919081815260200182805480156108c457602002820191906000526020600020905b81546001600160a01b031681526001909101906020018083116108a6575b5050505050905090565b600481815481106104b957600080fd5b6000602081905290815260409020805481906108f990611881565b80601f016020809104026020016040519081016040528092919081815260200182805461092590611881565b80156109725780601f1061094757610100808354040283529160200191610972565b820191906000526020600020905b81548152906001019060200180831161095557829003601f168201915b50505050509080600101805461098790611881565b80601f01602080910402602001604051908101604052809291908181526020018280546109b390611881565b8015610a005780601f106109d557610100808354040283529160200191610a00565b820191906000526020600020905b8154815290600101906020018083116109e357829003601f168201915b505050505090806002018054610a1590611881565b80601f0160208091040260200160405190810160405280929190818152602001828054610a4190611881565b8015610a8e5780601f10610a6357610100808354040283529160200191610a8e565b820191906000526020600020905b815481529060010190602001808311610a7157829003601f168201915b505050505090806003018054610aa390611881565b80601f0160208091040260200160405190810160405280929190818152602001828054610acf90611881565b8015610b1c5780601f10610af157610100808354040283529160200191610b1c565b820191906000526020600020905b815481529060010190602001808311610aff57829003601f168201915b505050506004830154600590930154919260ff1691905086565b606060058054806020026020016040519081016040528092919081815260200182805480156108c4576020028201919060005260206000209081546001600160a01b031681526001909101906020018083116108a6575050505050905090565b6000806001600160a01b031660018360405161048891906118bb565b610bed6040518060c0016040528060608152602001606081526020016060815260200160608152602001600015158152602001600081525090565b6001600160a01b038216600090815260208190526040902060050154610c4b5760405162461bcd60e51b8152602060048201526013602482015272155cd95c881b9bdd081c9959da5cdd195c9959606a1b60448201526064016103b8565b6001600160a01b03821660009081526020819052604090819020815160c08101909252805482908290610c7d90611881565b80601f0160208091040260200160405190810160405280929190818152602001828054610ca990611881565b8015610cf65780601f10610ccb57610100808354040283529160200191610cf6565b820191906000526020600020905b815481529060010190602001808311610cd957829003601f168201915b50505050508152602001600182018054610d0f90611881565b80601f0160208091040260200160405190810160405280929190818152602001828054610d3b90611881565b8015610d885780601f10610d5d57610100808354040283529160200191610d88565b820191906000526020600020905b815481529060010190602001808311610d6b57829003601f168201915b50505050508152602001600282018054610da190611881565b80601f0160208091040260200160405190810160405280929190818152602001828054610dcd90611881565b8015610e1a5780601f10610def57610100808354040283529160200191610e1a565b820191906000526020600020905b815481529060010190602001808311610dfd57829003601f168201915b50505050508152602001600382018054610e3390611881565b80601f0160208091040260200160405190810160405280929190818152602001828054610e5f90611881565b8015610eac5780601f10610e8157610100808354040283529160200191610eac565b820191906000526020600020905b815481529060010190602001808311610e8f57829003601f168201915b5050509183525050600482015460ff161515602082015260059091015460409091015292915050565b606060068054806020026020016040519081016040528092919081815260200182805480156108c4576020028201919060005260206000209081546001600160a01b031681526001909101906020018083116108a6575050505050905090565b6000815111610f7b5760405162461bcd60e51b815260206004820152601260248201527110985c881251081a5cc81c995c5d5a5c995960721b60448201526064016103b8565b6000825111610f9c5760405162461bcd60e51b81526004016103b8906118d7565b6000835111610fbd5760405162461bcd60e51b81526004016103b890611902565b3360009081526020819052604090206005015415610fed5760405162461bcd60e51b81526004016103b89061192c565b60006001600160a01b031660018260405161100891906118bb565b908152604051908190036020019020546001600160a01b03161461106e5760405162461bcd60e51b815260206004820152601960248201527f42617220494420616c726561647920726567697374657265640000000000000060448201526064016103b8565b60006001600160a01b031660038360405161108991906118bb565b908152604051908190036020019020546001600160a01b0316146110bf5760405162461bcd60e51b81526004016103b890611963565b6040805160c08101825284815260208082018590528251808401845260068152653630bbbcb2b960d11b818301528284015260608201849052600160808301524260a083015233600090815290819052919091208151819061112190826119e9565b506020820151600182019061113690826119e9565b506040820151600282019061114b90826119e9565b506060820151600382019061116090826119e9565b50608082015160048201805460ff191691151591909117905560a09091015160059091015560405133906001906111989084906118bb565b908152602001604051809103902060006101000a8154816001600160a01b0302191690836001600160a01b03160217905550336003836040516111db91906118bb565b90815260405190819003602001812080546001600160a01b03939093166001600160a01b0319938416179055600480546001810182556000919091527f8a35acfbc15ff81a39ae7d344fd709f28e8600b4aa8c65c6b64bfe7fe36bd19b018054909216339081179092557fc6a389e0d7f85976a7f15ae09ba493cd9cd268e1da864fc1c540b3517da90fdd9061082e90869086908690611b0c565b60008151116112975760405162461bcd60e51b81526004016103b8906118d7565b60008251116112b85760405162461bcd60e51b81526004016103b890611902565b33600090815260208190526040902060050154156112e85760405162461bcd60e51b81526004016103b89061192c565b60006001600160a01b031660038260405161130391906118bb565b908152604051908190036020019020546001600160a01b0316146113395760405162461bcd60e51b81526004016103b890611963565b6040805160c081018252838152602080820184905282518084018452600681526518db1a595b9d60d21b81830152828401528251808201845260008082526060840191909152600160808401524260a08401523381529081905291909120815181906113a590826119e9565b50602082015160018201906113ba90826119e9565b50604082015160028201906113cf90826119e9565b50606082015160038201906113e490826119e9565b50608082015160048201805460ff191691151591909117905560a090910151600590910155604051339060039061141c9084906118bb565b90815260405190819003602001812080546001600160a01b03939093166001600160a01b0319938416179055600680546001810182556000919091527ff652222313e28459528d920b65115c16c04f3efc82aaedc97be59f3f377c0d3f018054909216339081179092557fc6a389e0d7f85976a7f15ae09ba493cd9cd268e1da864fc1c540b3517da90fdd906114b59085908590611b66565b60405180910390a25050565b6000602082840312156114d357600080fd5b81356001600160a01b03811681146114ea57600080fd5b9392505050565b60005b8381101561150c5781810151838201526020016114f4565b50506000910152565b6000815180845261152d8160208601602086016114f1565b601f01601f19169290920160200192915050565b6020815260006114ea6020830184611515565b634e487b7160e01b600052604160045260246000fd5b600082601f83011261157b57600080fd5b813567ffffffffffffffff8082111561159657611596611554565b604051601f8301601f19908116603f011681019082821181831017156115be576115be611554565b816040528381528660208588010111156115d757600080fd5b836020870160208301376000602085830101528094505050505092915050565b60006020828403121561160957600080fd5b813567ffffffffffffffff81111561162057600080fd5b61162c8482850161156a565b949350505050565b60006020828403121561164657600080fd5b5035919050565b60008060006060848603121561166257600080fd5b833567ffffffffffffffff8082111561167a57600080fd5b6116868783880161156a565b9450602086013591508082111561169c57600080fd5b6116a88783880161156a565b935060408601359150808211156116be57600080fd5b506116cb8682870161156a565b9150509250925092565b6020808252825182820181905260009190848201906040850190845b818110156117165783516001600160a01b0316835292840192918401916001016116f1565b50909695505050505050565b60c08152600061173560c0830189611515565b82810360208401526117478189611515565b9050828103604084015261175b8188611515565b9050828103606084015261176f8187611515565b9415156080840152505060a00152949350505050565b602081526000825160c060208401526117a160e0840182611515565b90506020840151601f19808584030160408601526117bf8383611515565b925060408601519150808584030160608601526117dc8383611515565b92506060860151915080858403016080860152506117fa8282611515565b9150506080840151151560a084015260a084015160c08401528091505092915050565b6000806040838503121561183057600080fd5b823567ffffffffffffffff8082111561184857600080fd5b6118548683870161156a565b9350602085013591508082111561186a57600080fd5b506118778582860161156a565b9150509250929050565b600181811c9082168061189557607f821691505b6020821081036118b557634e487b7160e01b600052602260045260246000fd5b50919050565b600082516118cd8184602087016114f1565b9190910192915050565b602080825260119082015270115b585a5b081a5cc81c995c5d5a5c9959607a1b604082015260600190565b60208082526010908201526f13985b59481a5cc81c995c5d5a5c995960821b604082015260600190565b6020808252601a908201527f4164647265737320616c72656164792072656769737465726564000000000000604082015260600190565b60208082526018908201527f456d61696c20616c726561647920726567697374657265640000000000000000604082015260600190565b601f8211156119e457600081815260208120601f850160051c810160208610156119c15750805b601f850160051c820191505b818110156119e0578281556001016119cd565b5050505b505050565b815167ffffffffffffffff811115611a0357611a03611554565b611a1781611a118454611881565b8461199a565b602080601f831160018114611a4c5760008415611a345750858301515b600019600386901b1c1916600185901b1785556119e0565b600085815260208120601f198616915b82811015611a7b57888601518255948401946001909101908401611a5c565b5085821015611a995787850151600019600388901b60f8161c191681555b5050505050600190811b01905550565b608081526000611abc6080830186611515565b8281036020840152611ace8186611515565b905082810380604085015260058252646a7564676560d81b602083015260408101606085015250611b026040820185611515565b9695505050505050565b608081526000611b1f6080830186611515565b8281036020840152611b318186611515565b905082810380604085015260068252653630bbbcb2b960d11b602083015260408101606085015250611b026040820185611515565b608081526000611b796080830185611515565b8281036020840152611b8b8185611515565b8381036040808601829052600683526518db1a595b9d60d21b60208401529081016060958601526000908201529290920194935050505056fea2646970667358221220d9e73c689c2df4d637ac4c34e7ea560c36bb5436984429b81c132c250d23510a64736f6c63430008140033",
  "linkReferences": {},
  "deployedLinkReferences": {}
}